S01C00007A796B5F6B65726E656C5F6672656572746F735F332E7333373F
S3150800000000100020610A000819E0000819E000083D
S3150800001019E0000819E0000819E0000819E00008CE
S3150800002019E0000819E0000819E000086102000854
S3150800003019E0000819E00008F1010008B5E3000816
S3150800004019E0000819E0000819E0000819E000089E
S3150800005019E0000819E0000819E0000819E000088E
S3150800006019E0000819E0000819E0000819E000087E
S3150800007019E0000819E0000819E0000819E000086E
S3150800008019E0000819E0000819E0000819E000085E
S3150800009019E0000819E0000819E0000819E000084E
S315080000A019E0000819E0000819E0000819E000083E
S315080000B019E0000819E0000819E0000819E000082E
S315080000C019E0000819E0000819E0000819E000081E
S315080000D019E0000819E0000819E0000819E000080E
S315080000E019E0000819E0000819E0000819E00008FE
S315080000F019E0000819E0000819E0000819E00008EE
S3150800010019E0000819E0000819E0000819E00008DD
S3150800011019E0000819E0000819E0000819E00008CD
S3150800012019E0000819E0000819E0000819E00008BD
S3150800013019E0000819E0000819E0000819E00008AD
S3150800014019E0000819E0000819E0000863E3000850
S3150800015019E0000819E0000819E0000819E000088D
S3150800016019E0000819E0000819E0000819E000087D
S31508000170013800D0FCE770470000000000000000CE
S315080001800B4A1168086806C881F30B88022181F3B7
S315080001901488203080F30988BFF36F8F4FF0000072
S315080001A080F31188104700BFAFF30080AFF30080DB
S315080001B0201E0020000000000000000000000000D3
S315080001C007480068006880F3088862B661B6BFF31E
S315080001D04F8FBFF36F8F02DF00BF00BFAFF3008002
S315080001E008ED00E00000000000000000000000002C
S315080001F0EFF309801EF0100F08BF20ED108AEFF309
S315080002000B82734620E9FC0F114A116808604FF00B
S31508000210300080F31188BFF34F8FBFF36F8F04F060
S315080002207DF94FF0000080F31188094A11680868C3
S31508000230B0E8FC0F13F0100F08BFB0EC108A82F379
S315080002400B8880F309881847AFF30080AFF3008066
S31508000250201E002000000000000000000000000032
S315080002601EF0040F0CBFEFF30880EFF30980044972
S31508000270084700BFAFF30080AFF30080AFF30080FC
S31508000280754D00080348044B834202D0034B03B163
S3150800029018477047ACE80020ACE8002000000000D2
S315080002A0064B0749C91A891048BF0131491003D0BE
S315080002B0044B0BB101481847704700BFACE8002053
S315080002C0ACE800200000000010B5064C237843B9BE
S315080002D0FFF7D8FF044B13B10448AFF3008001239E
S315080002E0237010BD3C250020000000001C8B01086F
S315080002F008B5054B1BB105490548AFF30080BDE8B5
S315080003000840FFF7CDBF00BF000000000010002026
S315080003101C8B0108A3F5803A704700BF174B002BCA
S3150800032008BF134B9D46FFF7F5FF00218B460F4686
S315080003301348144A121A0EF0F3FE0E4B002B00D087
S3150800034098470D4B002B00D0984700200021040049
S315080003500D000D48002802D00C48AFF300800DF0C0
S3150800036049FA200029000DF017FE0DF055F800BFD8
S315080003700000080000000000000000000010002037
S3150800038000100020C0E60020000000000000000069
S3150800039008B50EF0F9FB0BF0F3FF044C4FF47A7036
S315080003A004F09EF820460DF089FEF7E790F600085F
S315080003B01FB50B4BA02202930A4B0B49019301234D
S315080003C00A480093002303F0EFFE30B95921084884
S315080003D005B05DF804EB0DF033BE05B05DF804FB1F
S315080003E0181000207010002078F600089103000805
S315080003F085F6000807B501A802F074F89DF80530DF
S31508000400012B14D19DF804308BB94FF48012124B8E
S315080004101249586E03F580535A664B6B23F0E05326
S3150800042043F040634B63C3025CBF0D4B5A660DF045
S315080004301EFF00F065FA0DF018FF02F00DFB0DF037
S31508000440A7FE02F01FFB02F07FFB00F04DFA03B097
S315080004505DF804EB03F09AB9008000500040005A9A
S3150800046000A0005001480DF026BE00BF90F6000817
S31508000470004870473D250020014B1860704700BFB3
S31508000480FC12002008B50CF0C5F918B1024A136829
S315080004900133136008BD00BFF8120020F8B5054601
S315080004A00DF09DFD0023214F04463B6095F835303D
S315080004B0C0F380065A0735D456B1284605F0E4FA43
S315080004C001231B4A3B6013600BF03EFF3046F8BD24
S315080004D05B07FBD5284605F021FB01200BF0F8FE4B
S315080004E00128054608D113480DF09AF812480DF070
S315080004F0A9F828460BF0F8FE01200BF0E9FE0128C2
S3150800050005460AD10B480DF08BF80C48220CA1B20F
S315080005100DF086F828460BF0E7FE0123044A3B60F7
S315080005201360D3E7002ED1D1D4E700BFF012002024
S31508000530F4120020A8F6000881240108ACF6000889
S3150800054008B50DF04CFD430706D50BF0FBFFBDE8DB
S3150800055008400348FFF7A2BF0BF0FEFFF7E700BF0E
S31508000560E02200202DE9F041064618480CF0EEF886
S31508000570DFF85880044620B94FF0FF352846BDE815
S31508000580F081014640460BF0E5FE21464FF4C17264
S31508000590002005F077FC04460028EDD00546002724
S315080005A06A89686808EB07010EF0F6FD6B892D6805
S315080005B01F44002DF4D13146204633699847054635
S315080005C00028DBD0204605F0F3FBD7E73D250020C1
S315080005D02DE9F04107460EF0C8FA10F00108044666
S315080005E011D101200BF074FE012805460BD11848DD
S315080005F00DF016F8174A1848C4F30F210DF010F835
S3150800060028460BF071FE00263846FFF7ABFFE0B12F
S31508000610B8F1000F01D0012E12DD01200BF058FEB3
S31508000620012805460CD10A480CF0FAFF32460B4B56
S315080006300B48C4F30F210CF0F3FF28460BF054FEC9
S315080006400EF08CFA0020BDE8F0810136DCE700BF29
S31508000650A8F60008DBF60008EBF600080CF7000819
S3150800066013F700087FB5044690B901200BF030FE59
S31508000670012805460CD13C480CF0D2FF40F217225F
S315080006803A4B3B493B480CF0CBFF28460BF02CFE77
S31508000690082004F0C1FE002863D0062384F83A3007
S315080006A00023354AC4E91133C4E90F23C4E91333D7
S315080006B0C4E91533C4E91733C4E91933E36647F2C5
S315080006C06143E3862D4B206263612D4BA36104F1E0
S315080006D02E03036040F2DC53A38540F60663A38627
S315080006E0284B1868FFF7CEFE054601200BF0F0FDF3
S315080006F00128064608D11C480CF092FF22480CF047
S31508000700A1FF30460BF0F0FD01200BF0E1FD0128BA
S31508000710064611D114480CF083FF6879AB786A78DD
S315080007202978029028790190E878009017480CF00B
S3150800073077FF30460BF0D8FD00202B7884F82E3052
S315080007406B7884F82F30AB7884F83030EB7884F8FF
S3150800075031302B7984F832306B7984F8333004B031
S3150800076070BD4FF0FF30FAE7A8F600084AF7000810
S3150800077080F700088EF7000800E1F5053DA9000896
S31508000780D7DF0008FC12002081240108B6F700080C
S31508000790438970B50E2B04460D460DD8314B1A8D7C
S315080007A001321A85DA8B0132DA834B6D01334B65D8
S315080007B0204605F0FDFA3DE0C37B1BB991F83830B9
S315080007C00133C373606803788689D9070AD5012B74
S315080007D018D1437833B983785E2B03D1637B43F012
S315080007E010036373082E17D0B6F5C16F24D01D4BBE
S315080007F01A8D01321A85DA8B0132DA83AB6D013331
S31508000800AB65D5E7062218490EF060FC0028E9D149
S31508000810637B43F00803E4E795F835301A07C7D534
S315080008200E21204605F098FA0028C1D1294620460F
S315080008300AF004FD002070BD95F835301B07B7D5C2
S315080008400E21204605F088FA38B1064B5A8C01323B
S315080008505A84DA8B0132DA83AAE72946204609F058
S31508000860B7FEE7E7A01F00204EF800082DE9F04183
S315080008700446BDF818000D4616461F460DF06AFFD9
S315080008800E21804628460EF08DF8E0B96968A1F871
S315080008900C803B680B60BB888B803368C1F80630D8
S315080008A0B3884B8194F83430062B06D04FF49972EE
S315080008B0094B0A490A480CF0B3FE29462046A369A3
S315080008C0BDE8F0411847074A6FF001005389013324
S315080008D05381BDE8F08100BFDEF7000817F800086D
S315080008E08EF70008A01F002008B504480DF057FC35
S315080008F00DF05BFBBDE8084000F014B808FB0008E3
S3150800090001480DF04CBC00BF08FB00081022014B43
S315080009101A64704700D003501022014B1A647047BE
S3150800092000E003502DE9F041404D88B001AC0FCDF1
S315080009300FC495E8070084E807000124DFF8008162
S315080009403B480DF02CFC3B4F40460DF028FC3A4B3B
S31508000950384601A903938DF8124001F025FE234677
S3150800096004220021022001F073FD224621460023BD
S31508000970022001F06DFD022123460846042201F0FB
S3150800098067FD042223461146002001F061FD4FF061
S3150800099002132A4D0226C5F83437A3F58033C5F865
S315080009A030371C23C5F838674FF44870C5F8203728
S315080009B002F0C0FE1420FFF7AFFF02F0BBFE2320B3
S315080009C0FFF7A4FF02F0B6FEB9213846FFF7A4FFE9
S315080009D00DF0D4FBFFF79AFF002330461A46194656
S315080009E001F036FD002321461A46304601F030FD57
S315080009F0234631463046002201F02AFD00222346CE
S31508000A001046042101F024FD384601F0A1FD00231B
S31508000A104046C5F83437C5F83037C5F83837C5F80D
S31508000A2020370DF0BFFB08B0BDE8F08154F8000888
S31508000A3008FB000800C0055000127A0000C00350E9
S31508000A4000FB00080348044A0449121A92100DF0E4
S31508000A50E4BA00BF7001000870010008C0E6002073
S31508000A6008B500F02FF8FFF7EDFF124B12498B423D
S31508000A7012D30020114B12498B4218D3FFF74EFCB4
S31508000A80186850F82240586840F8224001329868A1
S31508000A908242F5D30C33EAE70022F8E71C6844F8EB
S31508000AA0220001325C68A242F8D30833E4E7002248
S31508000AB0F8E700BF248B0108308B0108308B01084A
S31508000AC0308B01084FF48041124B134A70B59A6077
S31508000AD0D3F88820114D42F47002C3F88820104AD2
S31508000AE005F5005491664FF0FF3222660D4A62669C
S31508000AF00222C3F8D020BFF34F8FBFF36F8F4FF496
S31508000B004036002001F0EAFF0020E66001F0CCFF45
S31508000B102E6170BD00ED00E0000000080080004472
S31508000B2000900050F7FF3700014B1868704700BF68
S31508000B30C4E60020014B1860704700BFC4E60020D9
S31508000B40084B1B6F03F00703022B04D0032B05D0B9
S31508000B50012B05D0FEE7044B18687047034BFBE7EB
S31508000B600348704700800050C4E60020CCE6002009
S31508000B70002D310108B5FFF7E3FF054B1B6FC3F3E3
S31508000B8003330133B0FBF3F0024B186008BD00BF16
S31508000B9000800050C0E600200048704700B4C40436
S31508000BA0014B1868704700BFCCE60020054B18605B
S31508000BB0054B1B6F03F00703032B01D1FFF7DABFC1
S31508000BC0704700BFCCE60020008000500048704700
S31508000BD0002D31014FF0B4439868C0F304400C2847
S31508000BE00AD8DFE800F00B090909090907211909DC
S31508000BF01B1D1F000F487047002070479B6803F0B5
S31508000C004073B3F1807F11D0B3F1007F10D00A4A48
S31508000C10002B08BF104670470848704708487047B9
S31508000C20084870470848704708487047084870479A
S31508000C3008487047405DC60000093D00C0EA21012A
S31508000C4080BA8C010048E801005A62020024F400C8
S31508000C5080841E0040420F00014B1868704700BF91
S31508000C60C8E6002013B50024294801940DF097FA28
S31508000C70012304220321204601F0EAFB20460DF059
S31508000C807CFA0122234B0520C3F8442401A90DF060
S31508000C9081FA002839D1204BD3F8F02042F001021E
S31508000CA0C3F8F020D3F8FC2042F08072C3F8FC2089
S31508000CB01A4AA3F55D431A60019B194A03F5D52321
S31508000CC003F2FC43B3FBF2F3164A013B136102231A
S31508000CD0C2F8F0304FF48073C2F804334FF0604323
S31508000CE0114AC3F8B02F114AC3F8802ED3F8002E44
S31508000CF042F48072C3F8002EFF2283F82020D3F82E
S31508000D00002E22F48072C3F8002E02B010BD00BF78
S31508000D1008FB000800D0035000ED00E0FF03004088
S31508000D20F8590D00000004E055CEACC509000100D5
S31508000D30032838B504460D4605D8094B33F8103054
S31508000D40CB40DB0704D440F2FE3106480DF078F9B3
S31508000D50302301225C43044BAA401A5138BD00BF18
S31508000D60C0F8000870F8000840E00350032838B5BA
S31508000D7004460D4605D8094B33F81030CB40DB073F
S31508000D8004D440F22D4106480DF05AF930230122C9
S31508000D905C43044BAA401A5138BD00BFC0F800088E
S31508000DA070F8000840D0035010B5044606480DF008
S31508000DB0F6F9A3782078B3FA83F3042261785B09FD
S31508000DC001F046FB002010BD08FB000838B5047882
S31508000DD04578032C05D8094B33F81430EB40DB076C
S31508000DE004D44FF4896106480DF02AF9302301220C
S31508000DF05C43044BAA401A5138BD00BFC0F800082E
S31508000E0070F8000840F0035070B505780446032DC5
S31508000E10467805D80C4B33F81530F340DB0704D475
S31508000E204FF4836109480DF00BF91022302313FBA8
S31508000E300523074A9B58F34003F00100A3780BB932
S31508000E4080F0010070BD00BFC0F8000870F8000807
S31508000E5030C00350044BD3F88420D206FBD4D3F811
S31508000E608400C0F3811070470040005008B5334B2A
S31508000E7098424FD027D8324B984245D017D8314B95
S31508000E8098423ED00AD838B12F4B984239D041F211
S31508000E90A6312E480DF0D4F8002034E02C4B9842A9
S31508000EA02FD02C4B9842F2D12B4B586E2BE02B4B64
S31508000EB098422CD003F5371303F5D8639842E6D148
S31508000EC0254B986F1FE0264B98422FD00CD8254B00
S31508000ED0984223D0244B984224D0244B9842D6D10A
S31508000EE01D4BD3F884000EE0214B984222D003F51F
S31508000EF0740303F510539842C9D1174BD3F89800D9
S31508000F0001E0154B986D08BD134B186FFBE7124BA4
S31508000F10586FF8E7104BD3F88000F4E70E4BD3F878
S31508000F208800F0E70C4BD3F88C00ECE70A4BD3F8B3
S31508000F309000E8E7084BD3F89400E4E780BA8C0100
S31508000F40405DC60080841E0040420F00C8F80008B5
S31508000F5000093D00C0CF6A000080E00F0024F400BD
S31508000F60007E560380D54302006CDC020048E80187
S31508000F700090D00338B5124B0546D3F880300C469E
S31508000F8003F00303022B0BD0032B0DD0012B0FD13B
S31508000F90FFF7D6FD0E2305B1286004B1236038BDDE
S31508000FA0FFF718FE0723F6E7FFF7BEFD0623F2E76D
S31508000FB0044841F2FF110DF043F800231846EAE70A
S31508000FC000800050C8F8000838B51A4B0546D3F813
S31508000FD020010C4600F00700062821D8DFE800F0BB
S31508000FE028040C1410181C00FFF79EFD052305B1F4
S31508000FF0286004B1236038BDFFF7D2FD0323F6E766
S31508001000FFF7E8FD0723F2E7FFF7E0FD0223EEE727
S31508001010FFF78AFD0623EAE7FFF7C2FD0423E6E7A2
S31508001020054841F27C210DF00BF800231846DEE74F
S315080010300123DCE700800050C8F8000838B5194BD2
S315080010400546D3F828310C4603F00703013B052B68
S3150800105020D8DFE803F003131B0F0B17FFF764FD17
S31508001060052305B1286004B1236038BDFFF75CFD90
S315080010700623F6E7FFF7AEFD0723F2E7FFF790FD35
S315080010800323EEE7FFF78CFD0423EAE7FFF79EFD4F
S315080010900223E6E7044841F284010CF0D1FF00235D
S315080010A01846DEE700800050C8F80008F7B50027A4
S315080010B0144B0197D3F88041064604F00304022C2A
S315080010C00D4614D0032C0DD0012C14D1394601A895
S315080010D0FFF77AFF10240EB1019B336005B12C602F
S315080010E003B0F0BDFFF776FD07240190F3E7FFF79D
S315080010F06DFD0190EFE741F2D13103480CF0A0FFF6
S315080011003C46E8E700800050C8F80008002337B5D9
S315080011100193194B0546D3F820320C4603F0070312
S31508001120042B1FD8DFE803F025030F14190000214C
S3150800113001A8FFF783FF12230DB1019A2A6004B1B3
S31508001140236003B030BDFFF745FD07230190F3E7A1
S315080011500CF070FF0A230190EEE7FFF77DFD0923E7
S315080011600190E9E741F2430104480CF069FF0023C6
S31508001170E2E70123E0E700BF00800050C8F8000856
S3150800118038B5104B0546D3F840310C4603F0030337
S31508001190022B0BD0032B0DD0012B0FD10CF04AFFDD
S315080011A00A2305B1286004B1236038BDFFF754FD52
S315080011B00923F6E70CF041FF0C23F2E70123002090
S315080011C0EFE700BF00800050002337B50193184BA6
S315080011D00546D3F860320C4603F00703013B032BA0
S315080011E01FD8DFE803F0020E1914002101A8FFF743
S315080011F0EBFE10230DB1019A2A6004B1236003B0F7
S3150800120030BD002101A8FFF7BBFF1123F2E7FFF766
S31508001210E1FC07230190EDE7FFF7D8FC02230190D4
S31508001220E8E741F2E80103480CF00AFF0023E1E78A
S3150800123000800050C8F80008002337B50193184B02
S315080012400546D3F894320C4603F00703013B032BFB
S315080012501FD8DFE803F0020E1914002101A8FFF7D2
S31508001260B3FE10230DB1019A2A6004B1236003B0BE
S3150800127030BD002101A8FFF783FF1123F2E7FFF72E
S31508001280A9FC07230190EDE7FFF7A0FC02230190D4
S31508001290E8E741F21B1103480CF0D2FE0023E1E710
S315080012A000800050C8F8000873B500240F4B01945D
S315080012B0D3F87032064603F00303012B0D4607D018
S315080012C0022B11D041F2461109480CF0B9FE04E090
S315080012D0214601A8FFF754FF11240EB1019B336084
S315080012E005B12C6002B070BD1524F6E700800050E9
S315080012F0C8F8000838B5164B0546D3F800020C4660
S3150800130000F00700042819D8DFE800F020030B0FC7
S3150800131013000CF08FFE0A2305B1286004B1236080
S3150800132038BDFFF799FC0923F6E70CF086FE0C2377
S31508001330F2E7FFF71FFC0F23800AEDE7054841F2A5
S315080013408F410CF07DFE00231846E5E70123E3E70D
S3150800135000800050C8F8000838B5164B0546D3F883
S3150800136008020C4600F00700042819D8DFE800F048
S3150800137020030B0F13000CF05DFE0A2305B128604D
S3150800138004B1236038BDFFF767FC0923F6E70CF0C4
S3150800139054FE0C23F2E7FFF7EDFB0F23800AEDE777
S315080013A0054841F2C7410CF04BFE00231846E5E715
S315080013B00123E3E700800050C8F8000838B5104B51
S315080013C00546D3F840320C4603F00303022B0BD034
S315080013D0032B0DD0012B0FD10CF02CFE0A2305B1DF
S315080013E0286004B1236038BDFFF736FC0923F6E709
S315080013F00CF023FE0C23F2E701230020EFE700BFE1
S315080014000080005038B5104B0546D3F860310C46BD
S3150800141003F00303022B0BD0032B0DD0012B0FD1A6
S315080014200CF008FE0A2305B1286004B1236038BD14
S31508001430FFF712FC0923F6E70CF0FFFD0C23F2E791
S3150800144001230020EFE700BF00800050B0F5207FA1
S3150800145010B52ED009D8B0F5007F24D003D868B1CE
S31508001460B0F5C07F0AD000241BE0B0F5607FFAD142
S31508001470124BD3F88040C4F3011412E00F4B1C6FD3
S31508001480230B13F00E0FC4F303340AD0072C08D02D
S315080014900F2C06D0032C04D040F2862108480CF005
S315080014A0CFFD601C10BD054BD3F89040C4F304640F
S315080014B0F7E7024B1C6FC4F38024F2E70080005064
S315080014C0C8F800084FF4803238B5104B04469A66BF
S315080014D000200D46FFF7BAFF41F671320C4B604308
S315080014E0DC69DA635A6804F4803422F440125DB980
S315080014F00849884294BF00200120000502435A602B
S315080015000CB10022DA6338BD0349F2E700900050B7
S3150800151000000350005A6202002D310138B5430914
S3150800152004460D460ED140F233310D480CF088FDC5
S31508001530002304F01F0485B103F580530122A2405D
S315080015401A6038BD012B04D0022B04D040F2413179
S31508001550EBE7044BEDE7044BEBE703F50053EDE748
S31508001560C8F800086480005068800050002130B533
S31508001570802885B00446CDE9001100F0938029D86B
S31508001580002800F09580A0F120043D2C35D83D2C8C
S3150800159033D8DFE804F08D9A8D9AAAAAAAAAAA9A3D
S315080015A0B43FCA633F9A9A9A323232323232323270
S315080015B09A9A9A6BD49A3232323232323232323282
S315080015C0323232AA8D8D8DCF3F3FD97A50AF323223
S315080015D032323282B0F5B06F00F0918030D8B0F573
S315080015E0207F72D00FD8B0F5C07F61D0B0F5007FEC
S315080015F061D0B0F5807F00F087804FF4936155483D
S315080016000CF01EFD51E0B0F5607F69D00DD8B0F53D
S31508001610407FF2D1FFF7AEFA04464FF42070FFF789
S3150800162015FFB4FBF0F4640858E0B0F5806F5CD0A1
S31508001630B0F5A06FE1D100216846FFF767FD34E0F9
S31508001640B0F5106F76D016D8B0F5E06F77D00AD817
S31508001650B0F5C06F69D0B0F5D06FCED1002168461D
S31508001660FFF748FE21E0B0F5F06FC6D100216846C5
S31508001670FFF7C8FE19E0B0F5406F3BD00AD8B0F5C1
S31508001680206F61D0B0F5286FB7D100216846FFF703
S315080016900BFE0AE0B0F5486FAFD100216846FFF7A8
S315080016A0CBFD02E0FFF74CFA0090009805B030BD7C
S315080016B0FFF760FAF8E7FFF743FA05462046FFF713
S315080016C0C5FEB5FBF0F50095EFE7FFF753FA0446BC
S315080016D04FF42070FFF7BAFEB4FBF0F40094E4E789
S315080016E001A8FFF747FC019DE8E700216846FFF7D8
S315080016F06BFCDAE700216846FFF7A0FCD5E7002176
S315080017006846FFF7D3FCD0E74FF0E02302911B6948
S315080017105B0705D5FFF72EFA0290029B0093C4E7F4
S3150800172003A902A8FFF72CFDF7E700216846FFF793
S3150800173027FDBAE700216846FFF70EFEB5E7002148
S315080017406846FFF73BFEB0E700216846FFF73CFD19
S31508001750ABE700BFC8F8000808B58020FFF706FF0A
S31508001760034B98429EBF4FF48032024B1A6708BD5E
S31508001770005A620200A000501FB503460020B3F5C8
S31508001780807F019000F0C28063D85D2B54D84C2B23
S3150800179006D82D2B46D8232B2AD840F27D51A4E013
S315080017A04D3B102BF9D801A252F823F00319000873
S315080017B09B1700089B1700089B170008B518000818
S315080017C09B1700089B17000887190008D3180008FC
S315080017D0791800087D1900089B1700089B17000850
S315080017E09B1700089B1700089B170008911900080B
S315080017F0243B092BD1D801A252F823F0031900087B
S31508001800031900080319000803190008031900083A
S315080018109B170008F31800089B170008951800087E
S31508001820391900083D2B00F082803E2BB5D10020E7
S3150800183001A9FFF7C3FD60E0802BAED1574B1B6FA4
S3150800184003F00703013B032B4DD8DFE803F04A47B3
S31508001850878FB3F5F06F6AD021D8B3F5B06F48D04B
S315080018600FD8B3F5607F00F0858096D3B3F5806F07
S3150800187047D0B3F5A06F90D1002001A9FFF746FC29
S315080018803BE0B3F5D06F57D0B3F5E06FCFD0B3F5E3
S31508001890C06F82D1002001A9FFF772FC2DE0B3F5D5
S315080018A0206F70D00BD8B3F5086F4AD0B3F5106F18
S315080018B07FF473AF002001A9FFF74EFD1DE0B3F5D5
S315080018C0406F5BD0B3F5486F62D0B3F5286F7FF4ED
S315080018D064AF002001A9FFF7E7FC0EE0052301939A
S315080018E00BE00223FBE740F2CA412D480CF0A8FBA7
S315080018F003E0002001A9FFF7D9FB019805B05DF8C0
S3150800190004FB002001A9FFF75FFBF6E74FF0E02391
S3150800191002901B695B0705D5FFF72CF90D23039386
S31508001920039BDCE703A902A8FFF72AFCF8E70020D7
S3150800193001A9FFF767FDE0E7002001A9FFF7DAFC38
S31508001940DBE7164BD3F8003103F00303022B07D06D
S31508001950032B09D0012B0BD1FFF722F90323BEE78E
S31508001960FFF77AF90923BAE70CF062FB0823B6E712
S315080019700123B4E701A9FFF7FDFABEE7002001A994
S31508001980FFF75CFBB9E7002001A9FFF71DFCB4E7E8
S31508001990002001A9FFF750FCAFE700BF0080005008
S315080019A0C8F800084FF48032074B0849586E03F50B
S315080019B080535A664B6A23F001034B62C3035CBF2C
S315080019C0034B5A66704700BF0080005000C007509E
S315080019D000A0005038B5036804460F2B04D940F61A
S315080019E077317C480CF02CFB63680F2B04D940F642
S315080019F07A3178480CF024FBA3680F2B04D940F6FB
S31508001A007D3174480CF01CFB237B0F2B04D94FF453
S31508001A10386170480CF014FB637B0F2B04D940F631
S31508001A2083316C480CF00CFBA37B3F2B04D940F6A2
S31508001A30863168480CF004FBE37B3F2B04D940F65B
S31508001A40893164480CF0FCFA2369032B04D940F663
S31508001A508C3160480CF0F4FA6369032B04D940F61C
S31508001A608F315C480CF0ECFAE369032B04D940F695
S31508001A70923158480CF0E4FA8020FFF77DFE0328DF
S31508001A8000F083804FF48012534B4FF0A0615A66E2
S31508001A9045F60E02514BC3F88020514A91624FF425
S31508001AA0803102F5805291629A6DD203FCD4996D09
S31508001AB011F08041FBD1D4E90002120542EA006226
S31508001AC0E07B0243207B42EA0042607B42EA003226
S31508001AD0A07B42EA80121A619869D4E90452120678
S31508001AE042EA856200F000400243A07EE57E02439A
S31508001AF0207E42EA0042607E42EA00229A611A6A21
S31508001B00E06922F00F0242EA8502364D00283DD1EF
S31508001B101A6294F82420996A94F82000D200294081
S31508001B2042EA40120A4394F8211042EA011242F4AA
S31508001B3080329A622C49294A936D31EA0303FBD114
S31508001B404FF08071264881621369A56823F47003F3
S31508001B5043EA055313614FF00043836194F822303A
S31508001B600BB9224B996294F823303BB94FF4803273
S31508001B701E4B9A62194A936D5B00FCD494F8253083
S31508001B801BB1164B1A4AC3F8802038BD024342F0EF
S31508001B90080202281A6208D119614FF4085299619D
S31508001BA014484FF47F410CF09EFA0C4994F8223001
S31508001BB08A6A94F820001B062A4043EA4013134316
S31508001BC094F8242043EAC20394F8232043EA024304
S31508001BD08B62D3E7C8F80008009000500040005A0E
S31508001BE00050005AC7FFFEFE030001000060005ABD
S31508001BF0F1A7FFFF3440005A014B93F900007047E4
S31508001C0047E80020436810B5072B044604D940F678
S31508001C10D3512A480CF014FAA368032B04D940F6CA
S31508001C20D55126480CF00CFA2378032B04D940F634
S31508001C30D75122480CF004FA94F90130002B04DA43
S31508001C4040F6D9511D480CF0FBF94FF400011C4A27
S31508001C50637851664FF4D151022002F5B8325162C9
S31508001C6018494F2B48604FF0010028BF4F2301F554
S31508001C70805148601169C903FCD4217843EA0123DD
S31508001C805361D4E901131B0143EA0123617B0B432A
S31508001C90217B43EA41039360E37BA17B1B0143EA73
S31508001CA04113617C0B43217C43EA41035360A37CC7
S31508001CB013B16FF4D153536210BD00BFC8F80008C2
S31508001CC00090005000100250014B1880704700BF6A
S31508001CD03EE80020014B1880704700BF3CE8002012
S31508001CE04FF4800208B5184B5A660223174A536008
S31508001CF0936813F48033FBD1012822D1FEF750FFF5
S31508001D00134B984215D003F5122303F5F86398424E
S31508001D1013D0104B00EB8002400AB3FBF0F3520AD3
S31508001D200A49CA620B6301234B620022074B5A60B9
S31508001D3008BD45F67A13084AF2E745F61A03074A34
S31508001D40EEE75362F1E700BF0090005000400250F2
S31508001D5000F0490264666666D8B80500BBCF050080
S31508001D60B0F5207F38B577D00ED8B0F5007F61D0B2
S31508001D7003D890B3B0F5C07F2FD040F21631BDE836
S31508001D8038403D480CF05CB9B0F5607FF5D13B4A68
S31508001D904C1ED2F8FC5015F080751EBFD2F8FC30E8
S31508001DA023F08073C2F8FC30032C04D940F2F521E5
S31508001DB031480CF045F9324AD2F8803023F0300326
S31508001DC043EA0413C2F8803035B12C4AD2F8FC3005
S31508001DD043F08073C2F8FC3038BD4C1E012C0AD97A
S31508001DE0102903D8274BCB40DB0704D440F2C9217E
S31508001DF021480CF025F90CF085F90CF091F94FF40F
S31508001E008031214B1E4A1967136F23F4704343EA46
S31508001E1004331367FEF7AEFE0446FFF71BF8C0F15E
S31508001E20020120460CF076F900F040F8BDE838408B
S31508001E30FFF792BC4C1E1F2C04D940F20A310E48FB
S31508001E400CF0FEF80E4AD2F8903023F0F85343EA25
S31508001E500463C2F89030BFE74C1E012C04D94FF436
S31508001E60447105480CF0ECF8054A136F23F48063B7
S31508001E7043EA84231367AFE7C8F8000800ED00E0DB
S31508001E8000800050100101000090005008B50121A3
S31508001E90022000F071F90CF035F90CF041F94FF415
S31508001EA08032014B1A6708BD0090005008B54FF400
S31508001EB0C070FFF75BFBBDE808400449884294BF41
S31508001EC0012102214FF42070FFF74ABF80F0FA0281
S31508001ED02DE9F0410546FEF7C9FF431E03330446C4
S31508001EE004D940F6CF113B480CF0AAF84FF4C022AB
S31508001EF0394B5A6603F598335A68012A04D137498B
S31508001F004A605A689207FCD48020FFF735FC0528FA
S31508001F1007D10CF0F7F80CF003F94FF480322E4B8A
S31508001F201A672F4B24F040749D4239D02D4B9D42A1
S31508001F3039D0FEF7F9FD8542064603D90121284620
S31508001F4000F06EF9284FFB6813F0060FFBD1D7F89F
S31508001F500880BC60BB68634013F4F81F26D1284686
S31508001F60FEF7E8FD8020FFF707FC052814D1FEF7E9
S31508001F7001FEA842044604D940F6282115480CF06B
S31508001F805FF8FEF767FFC0F1020120460CF0C2F8C1
S31508001F90FFF78CFFFFF7E0FBAE4213D2BDE8F081F6
S31508001FA044F00074C5E744F08074C2E740F6172190
S31508001FB008480CF045F88020C7F80880FFF7DCFBD6
S31508001FC0052805D0BDE8F0410121002000F028B918
S31508001FD03546CCE7C8F800080090005000E00150EC
S31508001FE040420F0080841E00000001504E4B70B521
S31508001FF09842054673D041D8A3F5B703A3F55863AD
S31508002000984265D033D8494B494E984251D017D893
S31508002010002877D041F2C91146480CF011F840F66D
S31508002020737144480CF00CF84FF40022404B5A6682
S315080020303E4B9D4276D000243F4A954236D05DE01D
S315080020403D4B984227D03D4B9842E3D13C4BD3F8C1
S31508002050A040621E033224F040744CD940F67371D6
S3150800206034480BF0EDFF4FF400237366E4E7354B75
S315080020709842CFD1324BD3F8BC402CE0324B984231
S3150800208031D0324B984232D0314B9842C2D12C4B88
S31508002090D3F8C8401FE02A4BD3F8A040621E03328B
S315080020A024F04074DAD84FF40023736644F0807441
S315080020B024E0234BD3F8A040621E033224F0407478
S315080020C02AD84FF400237366234643F0007415E0BC
S315080020D01B4BD3F8B840621E154E0332BBE7184BAC
S315080020E0D3F8C040F7E7164BD3F8CC40F3E7144BC8
S315080020F0D3F8D040EFE74FF4002373664FF0B442AD
S31508002100946070BD40F673710A480BF099FF4FF45E
S3150800211000232C467366F1E740F6737105480BF009
S315080021208FFFCEE70023D0E7C0EA210140420F0027
S3150800213000900050C8F8000880841E0000093D0081
S315080021400080E00F0024F4000048E801005A62020B
S3150800215080BA8C01024A536B0342FCD1704700BF18
S3150800216000400950034A0179D36E23F030030B432C
S31508002170D366704700400050F8B50446244BD3F8A0
S315080021808420D006FBD4D3F88430C3F381139C4251
S315080021903CD0FEF7D5FC012C05460BD11D4B9842C9
S315080021A004D940F2B7711C480BF04AFF01212846B2
S315080021B00BF0B0FF0BF045FF4FF00072174B0746C8
S315080021C05A6620460BF0C8FF4FF48063104E621E15
S315080021D093403367736E9A0103D4D6F884309B060E
S315080021E00AD538460BF031FF022C0FD12846BDE838
S315080021F0F84000210BF08EBFD6F884309906E9D551
S3150800220040F2C57104480BF01BFFE3E7F8BD00BFB9
S3150800221000400050005A620217F90008006000509A
S3150800222010B50C4608B9FEF78BFC074B21461B7800
S315080022303BB1064B984204D80120BDE81040FFF791
S315080022409BBF0220F9E700BF0F2D0020005A62024B
S315080022504FF0004238B5244B244C5A664AF6CD3323
S31508002260656C014605F00105236428BB0120FFF7CC
S3150800227071FF6368DB0715D51D4B586008461D4B73
S31508002280226BD2070CD4984208D1072415B1174BF4
S31508002290194A1A640BF061FF204638BD0130EFE792
S315080022A09842F2D00024F1E70132236B13F00803B9
S315080022B005D08A42F8D1E8E700220E49F5E78A42B6
S315080022C0E3D020210A4A91620121A2F58052516089
S315080022D00649084A886A800603D49342D5D0013352
S315080022E0F8E79342DDE700BF009000500040095030
S315080022F00060095040420F003254FFFF4FF0004281
S3150800230038B5164B01465A664AF6CD33144C154A6B
S31508002310656C236443780B205B0043F00103D363A9
S31508002320FFF718FF63688A7823F4F87343EA021301
S315080023306360CA784B7943EA0223A3600A798B79EA
S3150800234043EA022323610878FFF782FFEB0744BFBD
S31508002350054B23640BF001FF012038BD00900050A7
S3150800236000400950004000503254FFFF0F2870B556
S31508002370044605D940F6526112480BF061FE0F2457
S315080023804FF00042104B11495D6E03F580535A66B3
S315080023904AF6CD334E6C80200B64FFF7DBFE0B6AE2
S315080023A023F00F0323430B62F30744BF084B0B6468
S315080023B0002DA2BF4FF00042064B5A660BF0CDFE29
S315080023C070BD00BF17F90008008000500040095092
S315080023D03254FFFF00A00050032838B504460D46C6
S315080023E005D8094B33F81030CB40DB0704D440F24C
S315080023F02D4106480BF024FE302301225C43044B92
S31508002400AA401A5138BD00BFB6F9000870F800088E
S3150800241040D00350032838B504460D4605D8094B65
S3150800242033F81030CB40DB0704D440F2FE310648BF
S315080024300BF006FE302301225C43044BAA401A51D6
S3150800244038BD00BFB6F9000870F8000840E0035030
S3150800245003282DE9F04104460D461746984605D847
S315080024601D4B33F81030CB40DB0704D44FF4B07162
S315080024701A480BF0E5FD37B129462046B8F1000F9A
S3150800248020D0FFF7A9FF0F21072D04EB440688BFCC
S31508002490A5F108034FEA0616114895BFAB009B0045
S315080024A004360C3607FA03F2994030440BF056FE10
S315080024B07FB929462046B8F1000F06D0BDE8F0419D
S315080024C0FFF78ABFFFF7A6FFDDE7BDE8F041FFF794
S315080024D0A1BFBDE8F08100BFB6F9000866F900089B
S315080024E030C003504FF48032064B5A6603F5E62394
S315080024F09B69C3F38512827003F03F021B0B42707F
S31508002500037070470090005070B506460C46154695
S3150800251022B940F28E210C480BF092FD24B94FF4F3
S315080025202070FFF723F804466D00013CB4FBF5F470
S31508002530064B250213EA042304D040F2B3210248CD
S315080025400BF07EFDF56170BDBEF90008070080FF3F
S31508002550124B10B59842044604D040F24241104846
S315080025600BF06EFD012104F58053596040F6AA630D
S3150800257041F20502636100230A48A360E365E2604D
S3150800258004F500522361E361E36490640348A3659C
S31508002590844204BF23656365516010BD00C00550C1
S315080025A0BEF90008FFFF010038B5294B04469842DA
S315080025B00D4604D040F2693126480BF041FD20460D
S315080025C0FFF7C6FF012204F580535A602B8AA268DA
S315080025D043F001031343AA7B43EA8223A360A3685B
S315080025E02A7D43EA4273A360AB7C5BB1184B9C42DD
S315080025F002BFEA7CA3F51033C3F8C821E36D43F0A4
S315080026008003E3652B7B2046D5E9011243F480530A
S31508002610E360FFF779FF6B7B0BB1102363616B7D7A
S315080026201BB1A36843F48033A360AB7D1BB1A368D9
S3150800263043F40043A360EB7D2A7E1B07120503F0D3
S31508002640E04302F4E0021343A3652B78636138BDC7
S3150800265000C00550BEF90008034B5A68D20702D5D8
S31508002660DA69002AF9D1704700800A50054B9A6842
S315080026709107FCD45A689207F9D4DA69002AF6D188
S31508002680704700BF00800A5008B5FFF7E5FF022231
S31508002690014B1A6108BD00BF00800A5008B5FFF754
S315080026A0E5FF0122024B03F580514A601A6108BD15
S315080026B000800A5008B5044B5968012903D1FFF771
S315080026C0E3FF024B596008BD00800A5000A00A507B
S315080026D010B5064CFFF7CAFF6368012B03D1FFF755
S315080026E0E9FFFFF7C3FF0378E36010BD00800A50D7
S315080026F0A8B94A680B78B2B94A7843EA42038A68A5
S3150800270012B1127843EA82138A7843EA8203CA68C6
S3150800271012B1127843EA4223054A936470477E2130
S3150800272004480BF08DBC127843EAC203E4E700BF05
S3150800273000800A500FFA000810B9044B5964704714
S3150800274040F2111102480BF07BBC00BF00900A5002
S315080027500FFA000810B9044B5964704740F24D113E
S3150800276002480BF06DBC00BF00A00A500FFA000823
S3150800277010B9044B1964704740F2891102480BF0EE
S315080027805FBC00BF00A00A500FFA000808B510B9D0
S31508002790044B186C08BD04484FF4E2710BF050FC6A
S315080027A00020F7E700800A500FFA000808B520B99C
S315080027B049B101290AD0002008BD40F27321054815
S315080027C00BF03EFCF7E7044BD86CF5E7024B186DA7
S315080027D0F2E700BF0FFA000800800A5018B939B1AD
S315080027E0012908D0704740F2113104480BF028BC83
S315080027F0034BDA647047024B1A6570470FFA0008F4
S3150800280000800A5070B50D46E8B1036813F4E07FFE
S3150800281003F03F06C3F3821210D0012A13D10B4CE2
S315080028209B0603D591210A480BF00AFC45B104F52D
S31508002830805401230020B340236070BD054CEFE7A8
S3150800284004F50054F5E70E20F7E700BF688000504E
S315080028506AFA00086480005030B58BB06D46774C34
S315080028600FCC0FC554F8043B68462B604FF07E63C7
S3150800287093F89C306D46FF2B08BF3F238DF8013037
S31508002880FFF7C0F93220FFF71FFA0FCC0FC50FCCA0
S315080028900FC594E8030085E80300694BD3F84C217B
S315080028A0110340F1AE80A3F5FE431C884FF6FF7373
S315080028B09C4208BF8C248DF81940FFF79DF9044403
S315080028C084F308045F488DF81840FEF76FF96846E8
S315080028D0FFF780F83220FFF7FDF95B48FFF7F8FAB3
S315080028E05A48FFF783FB5A4C01213620FEF716FE9D
S315080028F00020FFF7F5F9FFF7C9FA236F002023F048
S31508002900070343F003032367236F23F4744343F455
S31508002910806323670BF009FC4E4BD3F8FC20D201E9
S3150800292073D4D4F8803023F0030343F00103C4F8CA
S315080029308030D4F88030C4F88030454CD4F8203143
S3150800294023F0070343F00203C4F82031D4F82831F2
S3150800295023F0070343F00203C4F82831D4F8803182
S3150800296023F0030343F00103C4F88031D4F840315F
S3150800297023F0030343F00203C4F84031D4F860316E
S3150800298023F0030343F00203C4F86031D4F840325D
S3150800299023F0030343F00203C4F84032D4F80032AC
S315080029A023F0070343F00203C4F80032D4F80832D0
S315080029B023F0070343F00203C4F80832D4F8703250
S315080029C023F0030343F00103C4F87032D4F820322D
S315080029D023F0070343F00103C4F82032FEF7E2FFB1
S315080029E04FF0E0220020136963F004031361D4F862
S315080029F0603223F0070343F00103C4F860320BB0DA
S31508002A0030BDD3F85041E4B255E7D3F8FC2022F0A4
S31508002A108072C3F8FC20D4F8802022F0030242F02A
S31508002A200102C4F88020D4F88020C4F88020D3F8A6
S31508002A30FC2042F08072C3F8FC207EE7BCFA00084E
S31508002A400080E00FC017530200B4C404C0EA210195
S31508002A500080005000ED00E007B5094B18689A8819
S31508002A609B7900906846ADF804208DF80630FFF78C
S31508002A7045FC0320FFF77AFC002003B05DF804FB51
S31508002A80F8FA000813B50024064A6846536F43F05F
S31508002A900103536700948DF80440FFF763FB204653
S31508002AA002B010BD004000504C2810B5044608D8A6
S31508002AB001236109074A04F01F04A34042F82130A4
S31508002AC010BD4FF48A7104480BF0BAFA002CF7DBF4
S31508002AD0EEE700BF00E100E018FB0008002808DB6D
S31508002AE001224309034900F01F008240603341F880
S31508002AF02320704700E100E038B500F110035C2B95
S31508002B0004460D4604D94FF4E1710D480BF098FAC6
S31508002B101E2D04D940F2C31109480BF091FA002C76
S31508002B20ACBF04F16044074B4FEA0515EDB2ABBFE5
S31508002B3004F5614404F00F0484F800531D5538BDAC
S31508002B4018FB000814ED00E073B50024684600F091
S31508002B5049FB0C4B00981C600B4B0C4D1C600C4E33
S31508002B600C4B306018602C600BF0E8FB2046019B8C
S31508002B703268083BDB0853802B6801332B6002B0B0
S31508002B8070BD00BF041300200013002008130020A6
S31508002B90101300200C1300202DE9F04F99464B1C0A
S31508002BA007460C46154689B032D04B1EB3F5007F52
S31508002BB028D2194226D1A04600267A4B07961E70BF
S31508002BC0B9F1000F00F0E580C9F80060002F00F0A9
S31508002BD0E2800BF03DFA073707AB27F0070B2146D3
S31508002BE0039000932A463346584600F005FB079C97
S31508002BF0064604B178B903980BF030FA192009B0E3
S31508002C00BDE8F08F40F22B1167480BF019FAD2E7AE
S31508002C104FF00808D0E7DFF8A4A16288DAF80010B8
S31508002C20D300C0EBC2020139272A0493CAF8001060
S31508002C3040F28280002D5AD183450BF1080551D008
S31508002C40414620460BF01EFB80460790079A02EB8A
S31508002C50050B58460BF072FB0799C5F3CF054A8852
S31508002C60ABF80450521BABF80220CA88002A3BD0A6
S31508002C70551BADB201EBC202ABF8065095808A88A7
S31508002C804A49A8F80420BBF80420FF08A8F806203B
S31508002C900A68A8F80270944208BFC1F800B044490F
S31508002CA00A68944201D1C1F800B098F8002042F0B1
S31508002CB0010288F80020DAF800200132CAF800205C
S31508002CC03C4A03981368334413603B4A11688B42A5
S31508002CD088BF13600BF0C2F908F108030020C9F891
S31508002CE000308CE7A046B1E7ABF80620C7E704EB4F
S31508002CF00208404605920BF021FB079C059AF1084D
S31508002D00E088A8F80210D108A8F8041088B1049B36
S31508002D10C3EBC0013144C1F3CF0104EBC000A8F8EE
S31508002D2006108180083AD2086280B8F80420E2804A
S31508002D30BBE7A8F80600F5E7012D2ED104F1080235
S31508002D40B2FBF8F108FB11224AB3414620460BF0C4
S31508002D5099FA804698F80020DAF8003042F0010225
S31508002D60124F134D88F8002083B13B689C4204D16A
S31508002D704146002000F08CFA38602B689C429FD1AF
S31508002D804146012000F084FA286099E73B602B60F1
S31508002D9096E7222033E7212031E78345D5D1A0469F
S31508002DA0D8E700BF48E8002091FB00081013002070
S31508002DB00C13002004130020001300200813002021
S31508002DC02DE9F3410446684600F00CFA002C00F0A1
S31508002DD0B4800BF03DF914F808CC1CF0010F02D0B2
S31508002DE034F8061C29B90BF039F9012002B0BDE800
S31508002DF0F081534D34F8047CD5F800E04A1C0EF1F6
S31508002E000103A4F1080692B22B60002F37D0A6EB77
S31508002E10C70393F800800CF0020C18F0010F20D1BC
S31508002E20BCF1000F20D15A88023111448AB2C5F884
S31508002E3000E034F802CCBCF1000F22D114F8085C8B
S31508002E40511E6FF3000504F8085C002589B224F8C2
S31508002E50065C5980197865F3000119700021D9803C
S31508002E6030E0BCF1000F0AD014F8081C17446FF3C1
S31508002E70410104F8081C0021BAB29980D9E7334603
S31508002E80D7E706EBCC0EDDE900710F44BE45D5D277
S31508002E9016F83C60714616F001072BD014F8085C4A
S31508002EA06FF3000504F8085C002524F8065C541E38
S31508002EB05C801C7865F300041C70CC1AC4F3CF043C
S31508002EC0DC808C801F4C216819B1994201D8498849
S31508002ED001B923601C4C216819B1994201D349886C
S31508002EE001B9236019490B689B1A0B600BF0B6F8F9
S31508002EF000207BE7BEF80260AEF802700136324465
S31508002F00BEF8066092B2B6B10EEBC6012E68013E57
S31508002F102E6014F8085C6FF3000504F8085C0025B9
S31508002F2024F8065C541E5C801C7865F300041C704B
S31508002F300029C2D192E73146E8E7222056E700BFCA
S31508002F4008130020101300200C130020041300207F
S31508002F502DE9F74F04460D461646002A00F0328141
S31508002F600023136048B9002900F02F81014628463E
S31508002F7003B0BDE8F04F0BF0C5B921B903B0BDE801
S31508002F80F04FFFF71DBF0BF063F8009034F8060CFE
S31508002F90E91D4FEAC00821F00705A845A4F1080B6A
S31508002FA080F08F8034F8023C002B70D00BEBC30AFC
S31508002FB01BF83330DA076AD4BAF802C0A8EB05035F
S31508002FC013EBCC0363D41F2BDFF81492804F48DD34
S31508002FD0C1F3CF0104EB050B24F8061C013124F8D4
S31508002FE0021C584601930BF0A9F934F8021C019B00
S31508002FF0ABF80410BAF80610C3F3CF03ABF80230E7
S3150800300039B101339BB2ABF806300AEBC1018B80AC
S3150800301001E0ABF8061050460BF090F9D9F80030ED
S315080030204BB15946002000F033F959463860012063
S3150800303000F02EF901E000203860664B1860346015
S31508003040654A13682B44A3EB08031360634A1168A7
S315080030508B4200D9136000980BF000F84FF0000976
S315080030601FE0D9F8001000EB0C0301399BB2C9F830
S315080030700010591C24F8061CBAF8061021B10233B0
S315080030809BB224F8023CC0E724F8021CC3E7324688
S31508003090002128460BF036F9814630B100980AF02F
S315080030A0DDFF484603B0BDE8F08F4246214630684A
S315080030B00CF072F82046FFF783FE81460028BFD041
S315080030C0ECE77DD934F8023CA8EB0507002B49D07C
S315080030D00BEBC3091BF83330DB0744D4C1F3CF012C
S315080030E004EB050A24F8061C0131504624F8021C94
S315080030F00BF024F9B9F8023034F8022C03EBD703A5
S31508003100AAF80420B9F806209BB2AAF80230CAB178
S3150800311001339BB209EBC202AAF8063093804846EF
S315080031200BF00CF92E4B1B687BB15146002000F0C2
S31508003130AFF8274B51461860012000F0A9F8254B37
S31508003140186007E0AAF80620E9E70023204A13607A
S31508003150204A1360204B34601A681544A5EB08050D
S315080031601D6078E79946272FF4D9C1F3CF0104EB00
S31508003170050A24F8061C0131504624F8021C0BF0F7
S31508003180DDF834F8022CC7F3CF03AAF80230AAF800
S315080031900420B9F1000F0FD0B9F8062062B1013347
S315080031A09BB209EBC209AAF80630A9F804300C4A02
S315080031B0136801331360B7E70023AAF80630F6E769
S315080031C0346048E74FF022096BE74FF0210968E7BA
S315080031D0101300200C1300200413002000130020F5
S315080031E0081300200249034A0160521A42607047D8
S315080031F0B0E8002000000420F0B506460020059F30
S315080032004C1C08BF08213860BAB91F480568002D4C
S3150800321038D0B5F802E0DB0003EBCE0EC1F1000CA6
S315080032202878C0070BD52ABBE888B0B105EBC005DE
S31508003230B5F802E003EBCE0EF2E71448E6E7B6452A
S31508003240F1D35AB905F10804B4FBF1F001FB1044B7
S31508003250A0190CB17045E7D83D60F0BD08290FD01C
S315080032606C88013405EBC404A01B00EA0C00201A84
S315080032708645F1D2A8880028EFD0A5EBC005D7E788
S315080032803046E9E72846E8E7101300200C1300202B
S31508003290F7B505460C4621B96846FFF7A3FF75B989
S315080032A0009C2378DE0707D565B9E388A3B104EB4C
S315080032B0C3042378D807F8D4204603B0F0BD194BC9
S315080032C01C68EEE7012D07D1A3882BB1A4EBC30434
S315080032D02378D907F8D4EFE700266846FFF782FF78
S315080032E0114F009C2378DA070CD4002DE4D0E3882C
S315080032F0002BE1D004EBC30214F83330DB0706D504
S3150800330026461446E38823B104EBC304EAE71446C9
S31508003310EDE72EB940F26D1138460AF091FEE1E765
S315080033203446C9E70C130020FCFB000830B50E4CE8
S31508003330416123688BB9206083600DE0891A9A6819
S315080033401D4641616AB113465A698A42F6D935B1B2
S31508003350A860521A83605A6130BD0025F4E72060E0
S31508003360F7E798608260F7E71C13002038B500F08D
S3150800337077F90025084B094C1A682368C31A2AB13D
S3150800338023B15169994203D3C91A5161206038BDE6
S3150800339055615B1A9268F2E71C1300201813002087
S315080033A038B5134D2B685B6993B1124A022014682D
S315080033B01C440AF0CDFF204600F05AF900230E49B6
S315080033C02A680B70D088800709D501230B7038BD91
S315080033D002200AF0BDFF022000F098F9EEE7926895
S315080033E0002AF4D050690344012BEBD9EFE700BF5C
S315080033F01C13002018130020112D002000220C4950
S315080034000B687BB183420AD183687AB1936083687B
S315080034101BB15A6941690A445A61002070471A4625
S315080034209B68EEE70028EFD0022070470B60EEE7B6
S315080034301C13002070B50AF00BFE144E05463478AE
S31508003440FCB9134B1C60134B1C60134B1C8000F01B
S31508003450D3F801200AF07CFF00F060F90F4B024612
S31508003460186020B928460AF0F9FD232070BD2346C6
S3150800347040F2E7310A4809F03FFE0A4B186001237B
S31508003480337028460AF0EAFD0020EFE7122D0020E7
S315080034901C13002018130020A0240020201300204D
S315080034A018FCFFFF14130020C2072DE9F047044655
S315080034B00BD54D4A138801339BB21380FFF756FF8D
S315080034C04A4B1B680BB1FFF76BFFA30740F18A80D5
S315080034D00AF0BEFD4FF0000905464E46FFF746FFC7
S315080034E0C846424F3C680CB163698BB10022404B19
S315080034F0012E1A7003D119F0020F18BF1E70002C86
S315080035006CD0FFF74DFF2846BDE8F0470AF0A6BD88
S3150800351023465A693AB91A792179914288BF1C46D5
S315080035209B68002BF5D128460AF098FD2569DDB180
S3150800353000F096F8A269A0EB02094FEAE9734D4537
S3150800354078EB030311DA23691344A361E368B4F83B
S315080035500690013613B12046216898470AF078FD8F
S315080035600546FFF703FFBDE7A9460AF071FD824647
S315080035702046FFF743FF50460AF070FD2369002BEB
S31508003580E4D0B5EB09054FEAE97363EB4303002B77
S3150800359004DA40F2345117480AF052FDA38B33B1CE
S315080035A0E28B13449BB2B3F57A7F0FD2E3830AF01A
S315080035B04FFD814629462046FFF7B8FEA3692269D2
S315080035C048461344A3610AF049FDBFE7A3F57A7399
S315080035D0E383A369013D013BA361E8E7022000F00C
S315080035E07FF890E7BDE8F087A02400201C13002090
S315080035F0102D00206FFC000810B50123002486B0AA
S315080036001548ADF80830CDE903448DF804408DF827
S315080036100A4005940AF0C3FD01A8FFF759F82046A9
S3150800362002A98DF80840FFF763F820460F21FFF737
S3150800363091F80F212046FFF79BF8FFF72FF8FFF7C1
S315080036400BF8064B43209C61FFF748FA4320FFF727
S315080036502BFA06B010BD00BF04FB000800800A5014
S3150800366008B5FEF7F9FF014B986908BD00800A50B6
S31508003670F8B504460AF0E5FC0746FEF7EDFF164BDB
S315080036809D690AF061FE06460020FFF77FF883076A
S3150800369004D4731B032B01D8AE420FD10021631B40
S315080036A0022B98BFEC1C0846B4F1FF3F2CBF2246FC
S315080036B0621EFFF793F802200AF04AFE38460AF01F
S315080036C0C4FC064A137833B103498B6C43F00103F3
S315080036D08B6400231370F8BD00800A5049E8002067
S315080036E0830700F0010109D50122064B41F00201CA
S315080036F01A70054A936C23F0010393640020FFF7C0
S3150800370029B800BF49E8002000800A50830742BF55
S315080037100222014B1A64704700900A5007B5044B01
S3150800372001A918790AF036FD019803B05DF804FB83
S315080037300CFB000810B50446FDF71CFA4FF47A7224
S315080037409042B0FBF2F105D23621BDE810400C4894
S315080037500AF076BC0B4BB3FBF1F30B49884201D94F
S315080037603C21F2E702FB04F0B0FBF3F0022806D98D
S31508003770BDE810400323B0FBF3F0FCF7F9BC10BD1D
S31508003780D2FC000840420F00E7CD9A3BEFF30583D1
S3150800379073B9EFF31082094B12B9EFF3118212B124
S315080037A01A68022A04D0186828B901221A607047D4
S315080037B06FF0050070474FF0FF307047D4180020AF
S315080037C010B5EFF30583BBB9EFF310830D4C13B9AE
S315080037D0EFF3118313B12368022B0DD02368012B55
S315080037E00DD16FF004000021FFF786F9022323604C
S315080037F000F028FD002010BD6FF00500FBE74FF034
S31508003800FF30F8E7D418002040F6741101480AF092
S3150800381017BC00BF2DFD0008034B0360034B0B606C
S31508003820A0231360704700BF7C180020FC150020F9
S31508003830034B0360034B0B60A0231360704700BF64
S31508003840A41500202413002038B50D46044620B9D7
S315080038504FF48D7116480AF0F3FB01F065FAD4E9C6
S315080038600F314B432268D0185B1AA06062600020B3
S315080038701A44FF23A063E26084F8443084F8453094
S3150800388065B9236933B104F1100000F0D5FE08B11B
S315080038900AF018FF01F056FA012038BD04F11000AD
S315080038A00AF095FD04F124000AF091FDF2E700BF45
S315080038B093FD0008F7B50D4616461C46074620B97F
S315080038C040F2551119480AF0BBFB24B940F25911C8
S315080038D016480AF0B5FB1EB945B14FF4AF7102E0C0
S315080038E025B940F25D1111480AF0AAFB502301934D
S315080038F0019B502B04D04FF4B3710C480AF0A0FB7F
S31508003900019B7CB10121002D08BF26462046C4E94B
S315080039100F7584F846102660FFF796FF9DF820304D
S3150800392084F84C30204603B0F0BD00BF93FD000874
S31508003930F8B50D4617460646E0B940F29311194800
S315080039400AF07EFB002404F150000AF0EAFE044661
S3150800395070B1002380F8463015B300F150030121F9
S315080039602046C4E90F652360FFF76EFF84F84C70A4
S315080039702046F8BD0029E5D001FB00F4B4FBF1F3BD
S31508003980834204D040F29B1106480AF059FB14F111
S31508003990510FD8D94FF4CF7102480AF051FBD2E73C
S315080039A00346DCE793FD0008F0B585B00E461D46D4
S315080039B00446019220B940F2193149480AF040FB01
S315080039C036B9236C23B140F21A3145480AF038FB60
S315080039D0022D07D1E36B012B04D040F21B3140487E
S315080039E00AF02EFB00F0B4FE30B9019B23B140F279
S315080039F01E313B480AF024FB01F096F9A26BE36BF3
S31508003A009A421FD22A46314620460AF02BFD636A9F
S31508003A101BB104F1240000F00FFE08B10AF052FEB3
S31508003A2001F090F9012005B0F0BD01F07DF9A26B17
S31508003A30E36B9A42E6D30123019A42B901F082F96F
S31508003A400020F0E7022DDDD000231F46F4E713B966
S31508003A5002A800F02FFE01F075F900F035FC01F020
S31508003A6063F994F84430FF2B08BF84F8447094F83F
S31508003A704530FF2B08BF84F8457001F063F901A9AA
S31508003A8002A800F023FE20BB01F04EF9A26BE36BFF
S31508003A909A4210D101F056F9019904F1100000F08C
S31508003AA091FD20460AF027FD00F0B0FC0028BCD1A5
S31508003AB00AF008FE06E001F045F920460AF01BFD6B
S31508003AC000F0A4FC01F030F9A36BE26B9A42B2D97C
S31508003AD098E720460AF00FFD00F098FCB0E700BF13
S31508003AE093FD000838B5044620B940F27A210B4800
S31508003AF00AF0A6FAA56800F025FE85420BD1E36810
S31508003B00013BE3600BB1012038BD1A461946204631
S31508003B10FFF74AFFF7E70020F6E700BF93FD000826
S31508003B202DE9F843884617469946044620B940F2D7
S31508003B30ED3126480AF084FAB8F1000F06D1236C55
S31508003B4023B140F2EE3121480AF07AFAB9F1020FB0
S31508003B500DD00AF0D4FDA26BE36B05469A4212D348
S31508003B60002428460AF0D6FD2046BDE8F883E36B14
S31508003B70012B04D040F2EF3114480AF061FA0AF03A
S31508003B80BEFD0546A36B94F845604A464146204665
S31508003B9076B2A36B0AF066FC731C0BD1636A3BB161
S31508003BA004F1240000F048FD10B10FB101233B6079
S31508003BB00124D6E77F2E04D14FF48F6103480AF01B
S31508003BC03FFA013676B284F84560F1E793FD0008BE
S31508003BD0F8B50E46044620B94FF493611F480AF01B
S31508003BE02FFA236C23B140F29C411C480AF028FAAC
S31508003BF0236833B9A36823B140F2A14117480AF0F4
S31508003C001FFA0AF07CFDA36BE26B07469A4222D99B
S31508003C1094F845200133FF2A55B2A3630FD1636A8E
S31508003C203BB104F1240000F007FD10B10EB10123E9
S31508003C303360012438460AF06DFD2046F8BD7F2D15
S31508003C4004D14FF4A46105480AF0FAF901356DB2BA
S31508003C5084F84550EDE70024ECE700BF93FD000823
S31508003C60F0B585B00E460446019220B940F23C51A3
S31508003C703C480AF0E5F936B9236C23B14FF4A8613C
S31508003C8038480AF0DDF900F063FD30B9019B23B12D
S31508003C9040F2455133480AF0D3F901F045F8A56BCF
S31508003CA09DB131462046013D0AF00FFCA563236904
S31508003CB033B104F1100000F0BFFC08B10AF002FDB0
S31508003CC001F040F8012005B0F0BD019BABB302A896
S31508003CD000F0F0FC2F4601F035F800F0F5FA01F097
S31508003CE023F894F84430FF2B08BF84F8447094F8FE
S31508003CF04530FF2B08BF84F8457001F023F801A969
S31508003D0002A800F0E3FC10BB20460AF0A0FBC0B1F5
S31508003D10019904F1240000F055FC20460AF0EBFB5B
S31508003D2000F074FB08B90AF0CDFC00F0FDFFA56BA6
S31508003D30002DB6D1019B002BCDD101F003F8002050
S31508003D40C1E720460AF0D7FB00F060FBEDE7204606
S31508003D500AF0D1FB00F05AFB20460AF078FB00284F
S31508003D60E3D0ECE793FD0008F0B585B00446019171
S31508003D7020B940F2CE514A480AF062F9236C23B1C1
S31508003D8040F2D25146480AF05BF900F0E1FC30B93E
S31508003D90019B23B140F2D75141480AF051F9002559
S31508003DA02E462F4600F0C0FFA36BA3B1013BA363C9
S31508003DB0236813B900F0A2FDA060236933B104F1AA
S31508003DC0100000F039FC08B10AF07CFC00F0BAFFDC
S31508003DD0012005B0F0BD019B4BB925B140F21D612C
S31508003DE02F480AF02DF900F0ADFF0020F1E716B9CB
S31508003DF002A800F05FFC00F0A5FF00F065FA00F0ED
S31508003E0093FF94F84430FF2B08BF84F8447094F865
S31508003E104530FF2B08BF84F8457000F093FF01A9D1
S31508003E2002A800F053FC10BB20460AF010FBC0B1F4
S31508003E3023683BB900F078FFA06800F099FC0546B6
S31508003E4000F080FF019904F1240000F0BBFB204636
S31508003E500AF051FB00F0DAFA08B90AF033FC012639
S31508003E60A0E720460AF047FB00F0D0FAF7E720461D
S31508003E700AF041FB00F0CAFA20460AF0E8FA0028E0
S31508003E80EDD0002DB1D000F04FFF616A19B1236B58
S31508003E901968C1F13801A06800F0E6FCA3E700BF85
S31508003EA093FD000870B50D46044620B940F2B221CC
S31508003EB00B480AF0C5F8A66800F044FC864204D10F
S31508003EC00120E3680133E36070BD29462046FFF709
S31508003ED04BFF0028F8D0E3680133E360F4E700BF3E
S31508003EE093FD00082DE9F84389469046044620B913
S31508003EF040F23C711E480AF0A3F8B9F1000F06D14A
S31508003F00236C23B140F23D7119480AF099F80AF07A
S31508003F10F6FBA66B0746C6B194F8445049462046B8
S31508003F206DB20AF0D2FA013E6B1CA66313D123695F
S31508003F3053B104F1100000F07FFB28B1B8F1000F6F
S31508003F4002D00123C8F80030012638460AF0E2FB01
S31508003F503046BDE8F8837F2D04D14FF4F06104485C
S31508003F600AF06EF801356DB284F84450ECE700BFEC
S31508003F7093FD0008002330B5064A52F8335002EB89
S31508003F80C3041DB942F83310606030BD01330A2BF3
S31508003F90F3D1FAE7D81800202DE9F041044600F0DD
S31508003FA0C3FE2D4B2D4E1A682D4F01321A60356807
S31508003FB0002D43D134601B68012B1FD1B8464046FB
S31508003FC001350AF004FA382D08F11408F7D1DFF89C
S31508003FD0B880244D40460AF0FAF928460AF0F7F95F
S31508003FE021480AF0F4F921480AF0F1F920480AF0C4
S31508003FF0EEF9204BC3F800801F4B1D6014201F4AA2
S315080040001368013313601E4A23641168E36A8B42FE
S3150800401000FB037004F1040188BF13600AF0E5F998
S3150800402000F090FE174B1B689BB13368DA6AE36AA7
S315080040309A420ED2BDE8F0410AF044BB114B1A6809
S31508004040E36A002ADAD13268D26A9A4298BF3460A3
S31508004050D4E7BDE8F08100BF4C190020201E0020DF
S31508004060C0190020981900207C1900206819002022
S3150800407050190020941900209019002030190020AA
S315080040804419002040190020AC190020F8B506464E
S31508004090144B154D1C6828680F4604300AF0C7F9FA
S315080040A0731C07D137B1296810480431BDE8F840B8
S315080040B00AF09BB92B68A4195C6007D30C4B1868E7
S315080040C02968BDE8F84004310AF09AB9094B18681E
S315080040D0296804310AF094F9074B1A68A24288BF86
S315080040E01C60F8BD48190020201E00205019002029
S315080040F090190020941900202C190020064A1368EC
S315080041001968064B19B94FF0FF321A6070471268E2
S31508004110D2681268F9E700BF941900202C1900200C
S3150800412010B590F8553004463BB9006B0AF005FB0C
S315080041302046BDE810400AF000BB012BF9D0022B3F
S3150800414006D0BDE8104040F69771024809F078BFDE
S3150800415010BD00BFEFFD000880B50F4C0F4F104D86
S31508004160236833B90F4B1B68012BF8D90AF0AAFA52
S31508004170F5E700F0D9FDFB68DE68301D0AF057F94F
S315080041802B68013B2B602368013B236000F0DAFDB6
S315080041903046FFF7C5FFE3E76419002068190020D9
S315080041A04C190020C01900202DE9F04387B00546B8
S315080041B0DDE90F940E4617469846B9F1000F1DD053
S315080041C05CB358230593059B582B2CD1059B0223DA
S315080041D084F8553004ABC4F8309001930E9B2846FA
S315080041E000933A464346314602940AF0F1F92046CE
S315080041F0FFF7D2FE049807B0BDE8F08340F25521D8
S315080042000F4809F01DFF44B158230593059B582B09
S315080042100FD1059B00230493ECE740F2562108488A
S3150800422009F00EFFF0E740F25E21054809F008FFA5
S31508004230CCE740F25E21024809F002FFE9E700BF39
S31508004240EFFD000830B5002589B007AA06A905A81C
S31508004250CDE90555FFF7E0FA059B079A0293069BF9
S315080042601249CDE9005312482B46FFF79DFF80B14E
S3150800427000F0A2FB012804460FD10AF040FA4FF0DD
S31508004280FF320C4B1A600C4B1C600C4B1D6000F087
S31508004290C5FD0B4B1B6809B030BD0134F9D140F69A
S315080042A04301084809F0CCFEF3E700BF4BFE0008BF
S315080042B0594100082C1900204019002048190020EF
S315080042C0D0E60020EFFD0008024A136801331360A8
S315080042D0704700BF28190020014B1868704700BFB7
S315080042E0481900203D4B2DE9F74F1B68002B6ED16E
S315080042F03B4B1C6801341C609CB93A4D2B681B6803
S3150800430023B140F6C921384809F09AFE374B2A6886
S31508004310196829601A60364A136801331360FFF773
S31508004320EDFE344D4FF0000B2B68334E9C42334F55
S3150800433012D214213A68D26A4A43B258022A304A3B
S3150800434028BF4FF0010B1268002A18BF4FF0010B67
S31508004350584603B0BDE8F08FDFF88890DFF8A8A0CC
S31508004360D9F8002012681AB94FF0FF322A60E0E740
S31508004370D9F80020D268D2F80C80D8F804108C42FC
S3150800438001D22960D5E708F10403184601930AF01B
S315080043904EF8D8F8281019B108F118000AF047F8AD
S315080043A01423D8F82C00DAF80010884288BFCAF817
S315080043B00000019903FB00600AF017F83868D8F87E
S315080043C02C10C26A914228BF4FF0010BC8E70D4A6C
S315080043D04FF0000B136801331360B9E72819002062
S315080043E04819002094190020EFFD000890190020B4
S315080043F0341900202C190020C0190020201E002086
S31508004400381900203C190020441900202DE9F041F4
S315080044102A4C236823B940F6B601294809F010FE4C
S3150800442000F082FC2368013B236024682CB1002439
S3150800443000F088FC2046BDE8F081224B1B68002B63
S31508004440F5D0214D214EDFF894801DE0EB68DC683D
S31508004450271D04F1180009F0EAFF384609F0E7FFBE
S315080044601420E36A326800FB03809342394688BF0A
S31508004470336009F0BAFF164BE26A1B68DB6A9A4298
S3150800448002D30122134B1A602B68002BDED10CB124
S31508004490FFF734FE104D2C6844B101270D4EFFF787
S315080044A021FF00B13760013CF9D12C60094B1B682C
S315080044B0002BBCD00AF006F90124B9E72819002018
S315080044C0EFFD00084C1900207C1900204419002033
S315080044D0201E0020381900203C190020C019002091
S315080044E010B5044618B9BDE810400AF0EBB8094BF8
S315080044F01B6823B140F24C51074809F0A1FD002181
S315080045002046FFF7E1FEFFF7C1FDFFF77FFF002812
S31508004510E9D010BD28190020EFFD0008234B2DE92E
S31508004520F0411A68224B1AB101221A60BDE8F081DF
S31508004530204E1A6033681B6B1A68B2F1A53F0BD17F
S315080045405A68B2F1A53F07D19A68B2F1A53F03D1DF
S31508004550DB68B3F1A53F04D0306831683431FFF722
S3150800456053F9154F154D3C68DFF8548014236343FF
S31508004570E958EA1889B15168083349682B449942C1
S3150800458008BF4B68516008BF5360142303FB0455EA
S315080045906B68DB6833603C60C8E724B940F60441C1
S315080045A0404609F04DFD013CE0E700BF2819002010
S315080045B038190020201E002044190020C0190020A8
S315080045C0EFFD000838B50D46044620B940F61E41F1
S315080045D0074809F035FD074B20461968183109F0D8
S315080045E00FFF2846BDE838400121FFF74FBD00BF41
S315080045F0EFFD0008201E002070B50E46144605463D
S3150800460020B940F64D410A4809F01AFD094B2846DB
S315080046101968183109F0E9FE002C214608BF304612
S31508004620BDE8704018BF4FF0FF30FFF72FBD00BF41
S31508004630EFFD0008201E002038B5C368DC6824B9E1
S3150800464040F67D41144809F0FBFC04F1180528469C
S3150800465009F0EDFE114B1B68DBB9251D284609F04C
S31508004660E6FE0F4A14201168E36A8B42294688BF82
S3150800467013600C4A00FB032009F0B7FE0A4BE26AF6
S315080046801B68DB6A9A4285BF0120084B0020186028
S3150800469038BD29460648EFE7EFFD0008281900202F
S315080046A044190020C0190020201E002038190020B7
S315080046B07C190020034B1B680360034B1B6843608F
S315080046C0704700BF341900204819002070B50D4600
S315080046D0044620B940F6F841144809F0B1FC25B95A
S315080046E040F6F941114809F0ABFC00F01DFB104BF0
S315080046F019682B685A1C17D00E4826680068626825
S31508004700864208D08A4206D8002301242B6000F08E
S3150800471019FB204670BD881A8342F5D95B1A1344E3
S3150800472020462B60FFF7C6FF0024F0E7EFFD0008E0
S3150800473048190020341900200122014B1A607047DD
S3150800474038190020014B1868704700BF201E00204A
S31508004750054B1B6833B1054B1868B0FA80F0400961
S315080047604000704701207047401900202819002092
S31508004770F8B5044638B31A4DC36A2A68D26A934212
S3150800478026D28269174E002AA1BF2A68D26AC2F1C8
S3150800479038028261142202FB036342699A4213D1EA
S315080047A0071D384609F043FE14202B680E4ADB6ABB
S315080047B0116800FB03608B42E362394688BF1360C9
S315080047C009F013FE0120F8BD2B68DB6AC362F9E71E
S315080047D02B68806CDB6A98422CBF00200120F2E728
S315080047E0201E0020C01900204419002038B50446B0
S315080047F008B9002038BD184B1B68834204D041F223
S315080048004A01164809F01CFCE36C23B941F24B0136
S31508004810124809F015FCE36CE16AA26C013B91426F
S31508004820E364E6D0002BE4D1251D284609F0FFFDF8
S315080048301420A36CC3F13802A261094AE362116825
S315080048408B4288BF1360074A294600FB032009F0FC
S31508004850CCFD0120CEE700BF201E0020EFFD00089A
S3150800486044190020C019002070B50D4604460028DA
S315080048703BD0C36C23B941F29A011C4809F0E0FB0E
S31508004880A36C9D4238BF1D46E36AAB422DD0E36C4C
S31508004890012B2AD1164B1B68A34204D141F2B5015C
S315080048A0124809F0CDFBA269E36A002A4FF0140208
S315080048B0E562A4BFC5F13805A5610E4D02FB035399
S315080048C062699A4211D1261D304609F0B0FD1420BE
S315080048D0094AE36A116800FB03508B423146BDE87A
S315080048E0704088BF136009F080BD70BDEFFD0008F9
S315080048F0201E0020C019002044190020044B1A6805
S315080049001AB11968CA6C0132CA641868704700BFC0
S31508004910201E0020914208B5416000610AD8D21ACB
S3150800492083699A420DD2084B011D186809F068FD83
S31508004930002008BD9A4201D2994202D2034B011DBA
S31508004940F3E70120F5E700BF801E0020841E002043
S31508004950F7B5114C00F0E8F92568BDB90F4F104EB0
S31508004960384609F034FD304609F031FD0D4B10216B
S315080049701F600D4B0A201E600C4A0D4B0095FEF772
S3150800498099FF206010B10B49FFF7F4FA03B0BDE8B0
S31508004990F04000F0D7B900BF7C1E00209C1E002006
S315080049A0881E0020841E0020801E0020132D002053
S315080049B0241E002050FE000810B588B0FFF7C8FF77
S315080049C0114B1B68CBB1002407AA06A905A8CDE997
S315080049D00544FEF72DFF059B079A0293069B0B4994
S315080049E0019328230A4800932346FFF7DDFB094B6A
S315080049F0186010B1012008B010BD07484FF48D713A
S31508004A0009F01EFB0020F6E77C1E002055FE000874
S31508004A10194B0008781E00205DFE00082DE9FF41AD
S31508004A200C4690461E46054620B940F28F1110489E
S31508004A3009F006FB0F4F386880B1052CCDE9004810
S31508004A4002950EDCFFF784FE0023022818BF1A46DB
S31508004A50694608BF0A9A3868FEF7A6FF04B0BDE89B
S31508004A60F081002332466946FFF75AF8F6E700BF99
S31508004A705DFE00087C1E00202DE9F3470646FFF779
S31508004A802BFCDFF890800546D8F80030834209D918
S31508004A901D4F3B681A686AB91C4A11681360396069
S31508004AA0012300E0002328463360C8F8005002B00E
S31508004AB0BDE8F087DB68DC68D3F8009004F1040AE7
S31508004AC0504609F0B4FC236A2046984794F82830E3
S31508004AD05B07DED5A3694B44994506D2514638682B
S31508004AE06360246109F08CFCD3E700234A46194623
S31508004AF020460093FFF792FF0028CAD140F2B6314C
S31508004B00034809F09DFAC4E7841E0020801E002091
S31508004B105DFE0008741E00202DE9F0474FF00008DE
S31508004B20684E88B033681D68002D55D00024DB68B0
S31508004B301D68FFF7C9FB04A8FFF79EFF049B824682
S31508004B40614F002B62D1002C4DD1A84251D3FFF7FB
S31508004B505DFC3368DB68D3F80C9009F1040009F0B2
S31508004B6066FC99F82830580738D5D9F818102B4616
S31508004B70524648462944FFF7CDFE60B123462A46E9
S31508004B80214648460094FFF749FF20B940F2212103
S31508004B904E4809F055FA4846D9F820309847002279
S31508004BA0386804A9FFF75CF80028BBD0049B069870
S31508004BB0002B2EDB069C6369002B31D103A8FFF777
S31508004BC05BFF049B0546092BE9D8DFE803F02D2D8A
S31508004BD02D555C722D2D555C0124AAE723F001039F
S31508004BE089F82830D7E73A4B1B681C68B4FA84F46E
S31508004BF0640922463868A5EB0A0109F0C6FCFFF7E6
S31508004C0005FC0028CBD109F05DFDC8E7FFF7FEFBE0
S31508004C10C5E7059B07999847049B002BBFDBC9E7A7
S31508004C20201D09F004FCC9E794F82830A16943F06F
S31508004C30010384F82830059B024619442046FFF7ED
S31508004C4069FE0028ABD0236A2046984794F8283096
S31508004C505907A4D50023A269059920460A44CDF828
S31508004C6000801946FFF7DAFE002898D140F2433152
S31508004C70164809F0E5F992E794F8283023F001037D
S31508004C8084F828308BE794F8283043F0010384F839
S31508004C902830059BA36123B94FF457710B4809F0D7
S31508004CA0CFF9A1692B462A4620462944FFF732FE4A
S31508004CB075E794F828309A07E0D4204609F03DFDB8
S31508004CC06DE700BF841E00207C1E00205DFE0008E4
S31508004CD0801E0020002307B50193084B1B6801338B
S31508004CE004D04FF41571064809F0AAF909F007FD32
S31508004CF0019B002BFCD003B05DF804FBD4E6002032
S31508004D00BAFE00084FF0E02200234FF47A711361CF
S31508004D109361044B1B68B3FBF1F3013B5361072313
S31508004D2013617047C0E6002008B509F0E8FC044A9C
S31508004D30136801331360BFF34F8FBFF36F8F08BD3E
S31508004D40D4E6002010B5094C236823B940F2ED21BA
S31508004D50074809F075F92368013B2360206818B9EC
S31508004D60BDE8104009F0D6BC10BD00BFD4E600204F
S31508004D70BAFE0008836913F8023C022B0FD14FF0E4
S31508004D80E023D3F8882D42F47002C3F8882DD3F8AF
S31508004D90342F42F04042C3F8342FFBF7F1B940F202
S31508004DA07731014809F04CB9BAFE000810B54FF042
S31508004DB0807440E90224184A4FF0123440F80C2C4B
S31508004DC04FF003324FF0023C40E905244FF0013220
S31508004DD040F8203C40E9072C4FF010334FF01132D1
S31508004DE04FF0093440E90A324FF008334FF0073CD8
S31508004DF040E90C344FF006334FF0053240E90E3CDB
S31508004E004FF0043340E910326FF0020340F8443C97
S31508004E1040F8481D10BD00BFD54C00084FF0E023F0
S31508004E2010B50024D3F8202D42F47F02C3F8202DB4
S31508004E30D3F8202D42F07F42C3F8202DFFF762FFFA
S31508004E40044B1C60FBF7BCF9FFF768FBFFF742FF52
S31508004E50204610BDD4E600202E4B07B51B6813B1BB
S31508004E602D4A106898472D4D05F0B6F8431C0246A2
S31508004E700DD10022284601A907F0ACF9019C8CB98E
S31508004E809122274B2749284808F0CAFBECE710B9B6
S31508004E9005F080F8E8E7284601A907F09BF90130F4
S31508004EA0F6D0EBE72378062B30D8DFE803F02B049F
S31508004EB00D1A22272B00D4E9013630469847307060
S31508004EC0E06807F0DDF8CFE76068D4E90213984791
S31508004ED010B1606800F06CFF2146092000F0E0FB85
S31508004EE0C2E76068D4E9021204F0C6FF214608202A
S31508004EF0F4E7D4E9020105F02FF8F7E7D4E9013021
S31508004F009847F3E7D4E901309847ADE7CF22044B39
S31508004F10B8E700BFB81E0020B41E0020B01E00204F
S31508004F203AFF000898FF00088EF70008F8B5114BFD
S31508004F3007461B680E4615462BB9FC220E4B0F4931
S31508004F400F4808F06DFB092000F08EFB044668B197
S31508004F5002230146C0E901760370C560054807F0DB
S31508004F60FDF828B12146092000F09AFB4FF0FF30E2
S31508004F70F8BD00BFB01E00203AFF0008B6FF0008C3
S31508004F808EF7000891F8353013F0180F14BF024A4F
S31508004F90024AFFF7CBBF00BF910700083DB20008E1
S31508004FA0104B70B51B6806460D4633B940F25D12C4
S31508004FB00D4B0E490E4808F033FB082000F054FB51
S31508004FC0044660B105230146C0E90165037005483A
S31508004FD007F0C4F828B12146082000F061FB4FF01D
S31508004FE0FF3070BDB01E00203AFF0008B6FF00086B
S31508004FF08EF7000837B505460C4609F06DFC0D4BD3
S3150800500014211D600C4B0D481C6007F069F830B17F
S3150800501040F261220A4B0B490B4808F001FB0223B8
S315080050200093002309491A46094807F017F903B0FF
S3150800503030BD00BFB81E0020B41E0020B01E0020E0
S315080050403AFF0008C3FF00088EF70008594E00080B
S31508005050E6FF0008124B134A23F0030310B54FF47A
S31508005060A0411360002210481A715A1802604FF0C6
S31508005070502019601060012010710C4A0C4813600A
S315080050800C4BA3F8C61006F077FF40B1BDE81040F8
S3150800509040F21F22084B0949094808F0C1BA10BD59
S315080050A0B62D0020E01E0020DC1E0020D41E0020A5
S315080050B0D81E0020A01F0020F3FF0008500001089A
S315080050C08EF700082DE9F8430446002800F0AE8064
S315080050D010F0030F564F0AD009F023FDB7F8CC306D
S315080050E00133A7F8CC30BDE8F84309F01FBDDFF857
S315080050F06491A0F10805D9F80030AB42ECD8DFF886
S31508005100588100F10C03D8F800209A42E4D34948A4
S3150800511006F060FF14F8043C1BB9464806F086FF03
S31508005120DAE734F8080CB0F5A04FF6D834F8061CC0
S31508005130B1F5A04FF1D8D9F80020AB1A9BB28B4233
S3150800514002D0515A9942E8D1D8F8001016188E4262
S3150800515002D071889942E0D10021374E04F8041C28
S315080051603168A942B7F8C81088BF3560091A0B44D8
S315080051709542A7F8C83006D240F2DF122F4B3049C5
S31508005180304808F04DFAD8F800309D4206D34FF45F
S31508005190F0722A4B2C492B4808F042FA14F8043CC2
S315080051A033B140F2E112254B2849264808F038FA6F
S315080051B034F8083CB3F5A04F06D94FF4F2721F4BEA
S315080051C02349204808F02CFAD9F8003034F8081C8E
S315080051D05A18954212D0107980B9D8F80000824240
S315080051E00CD0306882425A5A08BF3560B2F5A04FD3
S315080051F024F8082C1EBFE91AD218518034F8062C58
S3150800520099188D420DD0087958B93068854208BF7B
S31508005210316034F8081CB1F5A04F99521CBF5B18D1
S315080052205A800448BDE8F84306F000BFBDE8F88395
S31508005230A01F0020D81E0020D41E0020F3FF00085F
S315080052406B0001088EF70008820001089C0001081F
S31508005250B7000108E01E0020DC1E00202DE9F74FEC
S31508005260CC1C24F00304A4B20B2C074604D9B4F5CD
S31508005270A04F02D9002725E00C24A142FAD8DFF86E
S315080052809491D9F80030BB4203D8594B1B68BB42EE
S3150800529006D840F2D122574B5749584808F0C0F96A
S315080052A0D9F80030BB4203D8514A1268BA420DD821
S315080052B009F037FC524AB2F8CC300133A2F8CC30A8
S315080052C009F034FC384603B0BDE8F08F37F8086CAF
S315080052D0A7F10805ED1A083EADB2B6B2731B9BB22C
S315080052E0A34245D3EED04748019306F073FE37F83C
S315080052F008ACD9F800B0019B0BEB0A0898F8042013
S31508005300002A3DD1BAF5A04F06D140F2F522394B15
S315080053103D493A4808F084F9D9F800203B4805F198
S315080053200803234412FA83FC99B203683BF80AE09F
S31508005330434508BFC0F800C000208CF8040022F8D6
S3150800534001E0ACF8025027F8081C535AAE1BB3F517
S31508005350A04F18BFD2182A4B18BF5180B3F8C820DF
S3150800536016442644A3F8C860264806F05FFEA9E757
S315080053704FF439721F4B2649204808F051F979E74E
S3150800538004F1140292B29342EED305F10808A04440
S31508005390BAF5A04F1FFA88F806D140F21632154B17
S315080053A01949164808F03CF91849D9F80030086830
S315080053B003EB0802904288BF0A600021117137F892
S315080053C0081C23F80810558027F8088C33F808209D
S315080053D0AD1BB2F5A04F1CBF9B18A3F80280084B63
S315080053E0B3F8C82015442C44A3F8C840BCE700BF4E
S315080053F0DC1E0020F3FF0008E10001088EF7000814
S31508005400A01F0020D81E002018010108D41E002065
S31508005410F8000108E01E00202DE9F04740B1C41C41
S3150800542024F00304A4B20B2C04D9B4F5A04F02D976
S31508005430002093E00C24A042FAD86FF00707DFF8A3
S315080054406091DFF860814C4806F0C4FDD9F8001079
S31508005450D8F80050C4F5A0406D1AADB2854209D3FC
S31508005460464A4548B2F8C4300133A2F8C43006F0BB
S31508005470DDFDDDE74E1933794A5B002B7AD17B1BBC
S315080054801344A34276D304F114018B42DFF8ECA04F
S3150800549066D304F108072F44BFB2B7F5A04F06D16B
S315080054A040F28732364B3749374808F0B9F80021B9
S315080054B0D9F80030DA1911713188D953558001228B
S315080054C037803271DA5BB2F5A04F1CBF9B185F803C
S315080054D0BAF8C83008332344BAF8CA209BB29A42AD
S315080054E038BFAAF8CA30AAF8C830D8F80030274D0D
S315080054F0B34212D12968D9F800001A790AB199423B
