S012000053617475726E575F7549502E733337A1
S3150800600000120020B58203081DE20908BB1408081F
S3150800601027070A081DE209081DE209081DE2090802
S315080060201DE209081DE209081DE2090801640008C5
S315080060301DE20908643C0D08A163000821140A083A
S31508006040A98703081DE209081DE209081DE20908D7
S315080060501DE209081DE209081DE209081DE20908F2
S315080060601DE209081DE209081DE2090895A40008B1
S315080060701DE209081DE209081DE209081DE20908D2
S315080060801DE209081DE209081DE209081DE20908C2
S315080060901DE20908798F03081DE209081DE20908AF
S315080060A01DE20908419103081D9103081DE209082C
S315080060B01DE2090855A90708D9B30708BDE30B0867
S315080060C0B9E30B087DAB0708C9E30B08C1E30B0866
S315080060D0ADB30708C5E30B0819B4070885B4070864
S315080060E01DE209081DE209081DE209081DE2090862
S315080060F049040A081DE209081DE209081DE2090803
S315080061001DE209081DE209081DE209081DE2090841
S315080061101DE209081DE209081DE209081DE2090831
S315080061201DE209081DE209081DE209081DE2090821
S315080061301DE209081DE209081DE209081DE2090811
S315080061401DE2090855C603081DE209084D080A0894
S31508006150B58C07081DE2090813E30B0819E30B08B9
S315080061601DE209081DE209081DE209081DE20908E1
S31508006170F0B5114A114C124E00F00105E3695F07AC
S3150800618013D40DB9334213D103EA00078F4207D15E
S315080061900B4A1A40002A0CBF00206FF00100F0BD20
S315080061A0013AEBD16FF00200F9E74FF0FF30F6E75E
S315080061B06FF00100F3E700BF8096980000000350D7
S315080061C00200010070B50B4BD96911F480310DD16D
S315080061D001244FF48072084E084DF46020462C6462
S315080061E01A61FFF7C5FF3464EC6070BD6FF00100FB
S315080061F0FBE700BF000003500010035000200350C7
S315080062004FF4803238B50E4B0E4C9A66E56941F666
S31508006210713315400122E3630B4B0021DA60022338
S31508006220606121202361FFF7A3FF10B92120FFF742
S315080062309FFF0122054BDA600DB10023E36338BDE9
S315080062400090005000000350001003500020035037
S3150800625070B5134C6061E3695B071ED40E4656F8A9
S31508006260043B8D18A361AE420BD1042300212120E3
S315080062702361FFF77DFF58B9BDE870402120FFF77D
S3150800628077BF08210846FFF773FF10B1042323617F
S3150800629070BD56F8043BA361E5E74FF0FF30F7E71A
S315080062A0000003502DE9F84315464FF48032184B89
S315080062B089469A6603F51C33DF690646174041F698
S315080062C07132DA63012203F58053DFF84C80DA6015
S315080062D055B9284601220F4BDA601FB10022A3F5F3
S315080062E00053DA63BDE8F88306F5005404EA0804A7
S315080062F0A41BAC4228BF2C46494622463046FFF727
S31508006300A7FF0028E6D12644A1442D1BE0E700BFDD
S31108006310009000500020035000E0FFFF42
S31508006320013800D0FCE770470000000000000000BC
S315080063300B4A1168086806C881F30B88022181F3A5
S315080063401488203080F30988BFF36F8F4FF0000060
S3150800635080F31188104700BFAFF30080AFF30080C9
S3150800636084B80120000000000000000000000000C2
S3150800637007480068006880F3088862B661B6BFF30C
S315080063804F8FBFF36F8F02DF00BF00BFAFF30080F0
S3150800639008ED00E00000000000000000000000001A
S315080063A0EFF30980EFF30B82734620E9FC0F104ADE
S315080063B0116808604FF0300080F31188BFF34F8FE3
S315080063C0BFF36F8F3FF054FA4FF0000080F3118847
S315080063D0074A11680868B0E8FC0F82F30B8880F357
S315080063E009881847AFF30080AFF30080AFF3008049
S315080063F084B8012000000000000000000000000032
S315080064001EF0040F0CBFEFF30880EFF30980044970
S31508006410084700BFAFF30080AFF30080AFF30080FA
S315080064200D680408000000002DE9F04F2DED028BE1
S3150800643098469FED5D8BC1B005461BA816468A4651
S315080064408FF0AFFE88ED008B0024D5E90623CDE951
S3150800645000234FF0030B96F820201BA926A80F94BB
S315080064607EF0D4F98DED168B514BCDE910441968A1
S3150800647014941294ADF860B00B680CA81B69984781
S31508006480D5E90C310C9A1BA8B2EB03090D9B4FF00A
S31508006490FF3263EB01032968CDE91144CDE9169370
S315080064A00B93ADF840408DF85040ADF860B08FF0D2
S315080064B0A0FE96E80700338C10AF87E80700ADF812
S315080064C060305146D5E906232846CDE93223D5E979
S315080064D00A23CDE930230FAB3A4608F03DFB0446C4
S315080064E00346002857D1284696F820200F9908F029
S315080064F04BFC0446034600284DD13B4652462846E7
S3150800650026A97EF0A3F904460346002843D1EB6882
S31508006510219A28461344EB60D5E90623C8E90023E7
S3150800652008F082FB0B9B9DF850E0EB622148224B5A
S3150800653085F82040BEF1000F08BF03461698C5F837
S31508006540289008901798119ACDE90630BDF8404072
S315080065501298160C92B2CDE90420CDE902469DF8B0
S315080065606010164A0191D8F8003059460093D8F8B9
S3150800657004301A2091F03EFA09F016F83946EA680E
S3150800658000F6080016F0F4F80446204641B0BDECC3
S31508006590028BBDE8F08F01211A20094A91F02AFAE8
S315080065A0F3E700BFAFF30080000000000000000022
S315080065B07C3D0220563E0C085A3E0C08793E0C08D3
S315080065C0603E0C08000000002DE9F04F2DED028B0F
S315080065D0884204460D4617461E4697B00AD103461A
S315080065E001211D202E4A17B0BDEC028BBDE8F04FE5
S315080065F091F000BA9FED288B0DF10C092A21484627
S315080066000DF1140819F07CF899E8030088E80300EE
S31508006610DFF890A0DFF890B0BDF81400BDF816308A
S31508006620834204D117B0BDEC028BBDE8F08F19F098
S315080066306BF9337881468DF824408DF825508DF80E
S3150800664026708DF828300BB173680B9309AB089345
S31508006650CDF81CA008F0BEF900230E938DF8403043
S315080066608DF851302A23ADF830904FF001090D937B
S315080066700CAA6B4607A98DED128B8DF850907EF00B
S315080066800BFA034620B15A4649461D2091F0B2F945
S31508006690404688F030FBBFE700000000000000001D
S315080066A0787B0C08647C0C08B87B0C08000000009A
S315080066B02DE9F04F2DED028B9FED318B9DB00DF13D
S315080066C008092A21044604AD484616461F46DDF841
S315080066D0A48019F015F899E8030085E80300DFF8A7
S315080066E0A8A0DFF8A8B0BDF81000BDF812308342A4
S315080066F004D11DB0BDEC028BBDE8F08F19F004F98A
S31508006700289B81461B78CDE90A6708948DF83030B6
S315080067101BB1289B5B788DF8313098F800308DF8DE
S3150800672038301BB1D8E90223CDE9102308AB07930B
S31508006730CDF818A008F04EF900232A228DF8583013
S315080067408DF869300223ADF848904FF00109CDE97C
S31508006750132306A96B4612AA8DED188B8DF868903F
S315080067607EF09AF9034620B15A4649461D2091F013
S3150800677041F9284688F0BFFAB5E700BFAFF30080B5
S3150800678000000000000000008C7C0C080F7C0C0840
S315080067902DE9F04F2DED028B083085B00F46914656
S315080067A0DDF8508091F01BF80446002800F09D8023
S315080067B06E4600259FED508B4FF0010B41F2A45A0F
S315080067C010AB0FCB86E80F004D4BC4E9025523608A
S315080067D0C4E90455C4E906552C336360494B04F1F2
S315080067E0480C0FCB84ED0E8BC4E90C5584F8205069
S315080067F084F840508CE80F00434B84F858B0A4F84E
S315080068005AA0E565C4E91955236604F17403C4E979
S315080068101D3304F18003C4E9203304F18C03C4E971
S3150800682023333A4B1022C4F8A0302946C4E9295527
S3150800683084F86C50E567C4F88850C4F89450C4F8D6
S31508006840AC5004F1B000B9F039FA84F8C0B0A4F835
S31508006850C2A0C4F8C45004F1C80091F035FD4AF648
S31508006860C873C82284ED388B84ED3A8BC4E93C237F
S3150800687004F58473C4E94055C4E94233A4F8D450F6
S31508006880A4F8D850C4F810513B68A3607B68E3604D
S31508006890BB682361FB6863613B69A3617B69E3614C
S315080068A03B7E84F8203033B104F1240307F11C023F
S315080068B007CA83E8070038467CF077FDA8B9B9F11E
S315080068C0000F12D0B8F1000F0FD003CE3378C4F8FA
S315080068D0309084F84030012384F80031231DA063EA
S315080068E0E163C4F89880C4F8AC30204605B0BDEC26
S315080068F0028BBDE8F08F00BF00000000000000001A
S31508006900384B0C08945B01204C310D08284B0C08B9
S315080069102DE9F04F2DED028B00240025CBB09946CA
S31508006920CDE92E450023CDE93045CDE934454FF66E
S31508006930FF74DFF898A2064688461746CDE90C3359
S315080069408DF8C8303393CDF8D8A04894A2B305463D
S3150800695000F53474A54206D10B2420464BB0BDEC95
S31508006960028BBDE8F08F28467EF002FA08B1903512
S31508006970F0E79FED8F8BBDF85C318DF8C880ADF8D8
S3150800698020318D4B4FF4C8710E93002309A8CDE929
S3150800699009330F93CDF870A00B9384F09EFE099CE3
S315080069A014BB0B240BA87CF0F6FB0AA87CF0F3FBBF
S315080069B009A87CF0F0FBD0E78AF044F9044608B948
S315080069C0AC24CAE706F5347528467BF0ACFBB4F868
S315080069D082308DF8C880ADF8203121460CA894ED98
S315080069E0028B8AF0B1F8CCE74FF4C8710AA884F094
S315080069F074FEDDF828A0BAF1000FD2D04FF4C871A2
S31508006A000BA884F06AFE0B9A002ACAD04FF4C87302
S31508006A104146CDE91332304610AA1094CDE9113A11
S31508006A2015938AF06FF904460028BBD141463046D3
S31508006A3012AA8AF049F904460028B3D141463046DD
S31508006A4014AA8AF01EF904460028ABD110A916A884
S31508006A5084F039FE12A918A884F035FE14A91AA8DC
S31508006A6084F031FE36AB079330AB05930DF1B80AC7
S31508006A7034ABCDE903A30DF1700B0EAB8DED008B96
S31508006A80CDF818B002931AAA18A916A81CF0A2FCE9
S31508006A900446002886D10BA87CF07DFB0AA87CF06A
S31508006AA07AFB09A87CF077FBB9F1000F13D1D6F869
S31508006AB0640300285ED003689B6898470346D6F8A7
S31508006AC06403002B4ED003685A4641465B699847D3
S31508006AD0044688B141E7D9F8003048465B699847CB
S31508006AE059468AF0D6FB08B9C52436E79DF85831C9
S31508006AF0CDF8CC908DF822319DF860315146B3FA25
S31508006B0083F328465B098DF823318AF046FB044651
S31508006B1000287FF422AF28460CA98AF044F806F527
S31508006B205D7495F881303FB302211120234A90F015
S31508006B3061FFD5E900122B69CDE9012100936B6944
S31508006B40022111201E4A90F055FF20460F991EF08B
S31508006B50FFFB034630BB96F88233013386F882334F
S31508006B600024FAE603684146DB6898470028C3D143
S31508006B701024F2E60324F0E6D5E900121120CDE947
S31508006B80002102210F4A90F035FF20460F991EF08A
S31508006B90DFFB03460028E3D0012111200A4A90F0C2
S31508006BA029FFDDE701211120074A90F023FFD2E7EC
S31508006BB00000000000000000B0BB0C08DCBA0C089E
S31508006BC0FCBA0C083FBB0C0874BB0C0894020D08F1
S31508006BD02DE9F0478AB00DF10D03019315230646FA
S31508006BE000934FF48072002308460C468FF01BFD75
S31508006BF0E8B996F8923001220093204600238FF0D8
S31508006C0099FCA0B996F893300222009320460023F7
S31508006C108FF090FC58B90DF10E0301931623032249
S31508006C200093204600238FF0FEFC054610B10AB0FB
S31508006C30BDE8F0874FF0100906F1C8070DF11808EE
S31508006C40102200214046B9F039F80DF10F030193DF
S31508006C5015234FF480720093204600238FF0E3FC3F
S31508006C600028E4D196F89320EBB29A4251D917ED51
S31508006C700C7BC44637F828ACA7F12603A7F1160EF5
S31508006C80624618685968083303C273459446F7D1B3
S31508006C908DED007B0422002320468FF026FC002879
S31508006CA0C5D1052200232046CDF800A08FF042FC6E
S31508006CB00028BCD14046494606228DE80300002339
S31508006CC02046CDE904898FF081FD0028AFD1204602
S31508006CD09DF90F108FF0DCFC013530370028A6D15E
S31508006CE0032DADD120469DF90E108FF0D1FC00285A
S31508006CF09DD1B6F88A3007220093204600238FF0EC
S31508006D0019FC002893D120469DF90D108FF0C0FC80
S31508006D108DE782469FED027BBAE700BFAFF300809E
S31508006D200000000000000000054B18680368D969D8
S31508006D3001A3D3E90023084700E0373B015D0300C0
S31508006D407C3D0220000000002DE9F043022089B0B6
S31508006D503BF096FD00B9FEE75F4E336803B9FEE7E0
S31508006D6010203BF08DFD33685C4C9B880DF10B01C0
S31508006D708DF80B30012320681A46B6F05DFD9DF8A4
S31508006D800B203168023A0023096892B22068B6F0EF
S31508006D9053FD534B05AF93E8070087E807003368B0
S31508006DA01B681D7815F020051FD02068B6F07CFBFF
S31508006DB0002867D02068B6F077FB75F091F8024690
S31508006DC00B4641A1D1E9000175F02EFA80460798D5
S31508006DD0894675F085F802460B464046494674F0E2
S31508006DE043FF75F091FB012507902068B6F078FB04
S31508006DF09DF80B30002848D0981DC00075F080F823
S31508006E0033A3D3E9002375F0E5F880462068894660
S31508006E10B6F066FB75F064F802460B4640464946EE
S31508006E2075F002FA80460798894675F059F80246C1
S31508006E300B464046494674F017FF75F065FB326805
S31508006E400790536973BB10203BF01AFD10B3079BDC
S31508006E50326803F5FA73117E0793224B997022491B
S31508006E600978D970917900972A462068B6F08CF887
S31508006E7028B14FF480503BF0F1FD28F013FD09B01E
S31508006E80BDE8F0830798C030ADE70798063300EBF6
S31508006E904310D4E731683B462A4689792068B6F01C
S31508006EA05DF8E5E711690B44A03B03930023ADF8B1
S31508006EB010300E4B9179009301972A46206803AB50
S31508006EC0B6F06DF8D4E700BF0000000060E3664145
S31508006ED00000000080842E41D0B201202CB201208F
S31508006EE0C0430D08E03D02202A440220D43D02207A
S31508006EF0F7B501203BF0C4FC0446002840F0B580F5
S31508006F005D4D5E4B5E4EC5E9003005F11003AB6082
S31508006F1041F60B233060B3803CF0C2FC594B1B6A28
S31508006F20DB0700D4FEE7214628466AF0EFFA044656
S31508006F3000B9FEE76BF07EFE00B1FEE72046524937
S31508006F406BF0C4F900B1FEE702212046B6F07FFADD
S31508006F5000B1FEE720464D496BF05AFC00B1FEE74A
S31508006F6001212046B6F0FDFD00B1FEE701212046CD
S31508006F70B6F00DFE074600B1FEE701463C2244483E
S31508006F80B8F09CFE80233A46204605F11401B6F077
S31508006F9069FC802800D0FEE73E4D0120B5F0D9FFF8
S31508006FA033A3D3E900232C602046CDE900234FF014
S31508006FB0FF324FF0FF33B6F0FEFA014600B1FEE7A6
S31508006FC02F483BF0A1FC012108463BF089FC012132
S31508006FD02868B6F08FF9044600B1FEE72E4B2F4A13
S31508006FE0988018602E4B1A60FF2298802D4B83F8E4
S31508006FF020202D4A98801A602C4A6FF06300DA60C8
S3150800700044F006FE33790B2B11D873790A2B0ED967
S31508007010274B1E6035F06CFA20463CF033FC0822FC
S3150800702028681146B6F0E1FA044608B1FEE7FEE71D
S315080070303CF020FC1F4B10211F481C709AF060F989
S3150800704000B9FEE71D491C489AF06CF900B9FEE73D
S3150800705010218C201A4A99F001FB00B1FEE7194865
S3150800706003B0BDE8F0409FF04DBE03B0F0BD00BFD1
S315080070700BE020FFE20300003CB20120A12A04082D
S3150800708034B201200080E00F070011008C430D0880
S31508007090ECB101202CB2012090F40020EB2A02204A
S315080070A068F4002040F400206B2A022030F4002007
S315080070B030B201206D2B0220E4B20120DB0F0A0852
S315080070C0D4B2012042570C082DE9F3411E461C4B49
S315080070D0044683424FF000038B4115460AD216A395
S315080070E0D3E9002375F080FA164914460246284665
S315080070F0A2F088FA144B4EF66021B4FBF3F203FBB8
S315080071001244B4FBF1F34FF47A7801FB1344B4FB51
S31508007110F8F728460D490097A2F074FA46B12846B2
S3150800712008FB17420A4902B0BDE8F041A2F06ABA64
S3150800713002B0BDE8F08100BF005C26050000000033
S31508007140FF5B260578820D0880EE3600EBBE0C083C
S315080071507E820D0800000000002370B5404C0546ED
S315080071608AB0E36318B10088236063F069FD3D487F
S31508007170B6F05CF93C4E3D4B304633603C4B736091
S315080071805FF0B0F9002130466AF0C0F932A3D3E9BE
S315080071900023A062C4E90623B2F0D9FED4E9062387
S315080071A019431043C4E90601CDE900014FF0FF3346
S315080071B04FF0FF32A06AB6F0FEF902224FF0FF3117
S315080071C0A06AB6F012FA012063F0BAFA4FF4007317
S315080071D000222849A06AB6F045FBB0F5007F38D1F1
S315080071E000239422CDE9073309933C23CDE90332E2
S315080071F005939623A06A03A906936AF08DFD35B315
S31508007200287C63F09DFE0546F0B9A06AB6F004FD39
S3150800721063F044FE63F076FA20B14FF480700021E3
S3150800722061F0DEFB63F07EFA20B14FF400600021C6
S3150800723061F0D6FBB2F045FF0120B5F08AFE0E4A92
S315080072400E49A06AB2F077FE28460AB070BDFF2044
S31508007250D7E70725F8E700BF0DD501552000000040
S3150800726088300120690345EC04C90120C5A5060834
S3150800727014C9012004C70120DF9E0B081F9F0B08B5
S315080072800348044B834202D0034B03B118477047A7
S31508007290404502204045022000000000064B0749F1
S315080072A0C91A891048BF0131491003D0044B0BB1E4
S315080072B001481847704700BF404502204045022054
S315080072C00000000010B5064C237843B9FFF7D8FF35
S315080072D0044B13B10448AFF300800123237010BD9B
S315080072E0C0D60120000000004CF10D0808B5054B7A
S315080072F01BB105490548AFF30080BDE80840FFF714
S31508007300CDBF00BF00000000083601204CF10D0873
S31508007310A3F5803A704700BF174B002B08BF134BE5
S315080073209D46FFF7F5FF00218B460F461348144A82
S31508007330121AB8F0C3FC0E4B002B00D098470D4B21
S31508007340002B00D098470020002104000D000D48AE
S31508007350002802D00C48B8F037FC76F063F9200014
S315080073602900B0F0CEF875F0F9FF00BF000008005C
S31508007370000000000000000000120020001200209B
S3150800738030380220C9FB0B0800000000044B1B68BC
S315080073909B88B3F5A04F01D101F0DAB9704700BF59
S315080073A0C8C40120054B1B68DB88B3F5864F02D09D
S315080073B0B3F5884F01D100F075BE7047C8C00120EB
S315080073C02DE9F04186B03EF061F84FF4FA7101906C
S315080073D002A8B0F0D6F842F2107104A8B0F0D1F8BD
S315080073E077F00AFA5DF0FCFF5EF040FF3C493D4845
S315080073F0B0F0C7F806213C4800F03CFE77F057FA93
S315080074003A4D384F77F0FAF984B22C80FCB1384CF3
S315080074104FF40060A689B0F0FAF886420AD1012036
S315080074205EF074F82B88002BECD05EF0B1FF77F095
S31508007430E9F9E7E740F60600A489B0F0E8F88442DF
S31508007440E0D15EF051FF2B88002BDBD0EFE702A8D6
S31508007450B0F0A3F8A0B302A8B0F09AF8254EDFF86A
S315080074609C800220C8F800605EF050F82B881BB19B
S315080074705EF08EFF77F0C6F90134052C06F1CC06CE
S31508007480EFD100241C4EDFF878800520C8F800608C
S315080074905EF03CF82B881BB15EF07AFF77F0B2F904
S315080074A001340A2C06F14006EFD104A8B0F075F8AD
S315080074B00028A7D004A8B0F06BF85EF0EBFEA1E7B1
S315080074C03846B0F06AF828B100F0F8FD3846B0F052
S315080074D05FF897E70A2101A83EF014F992E700BF82
S315080074E0C027090024360120E3880D08FED50120AF
S315080074F02E310220CCC0012048BE0120C8C401207C
S31508007500C8C001200146014800F0B2B8E8FE0B08E1
S315080075102DE9F0438378494E052B494C494D85B0F2
S315080075207AD14AF6C0033380238040F2071363807A
S315080075304FF6FF7343F207322B80FF2342487280CF
S315080075406B8000F095F8414800F092F840494148B0
S315080075504B794A7802930B790193CB7800938B7811
S31508007560097800F085F83788B6F802903846B0F002
S315080075704EF806463846B0F04AF807464846B0F090
S3150800758046F880464846B0F042F8C0B2C8F30F2322
S31508007590FAB2C6F30F2100902F4800F069F82E883A
S315080075A0B5F802803046B0F032F805463046B0F0FD
S315080075B02EF806464046B0F02AF807464046B0F090
S315080075C026F8C0B2C7F30F23F2B2C5F30F21009015
S315080075D0224800F04DF8258867882846B0F017F845
S315080075E004462846B0F013F805463846B0F00FF8BA
S315080075F006463846B0F00BF8C0B20090C6F30F2323
S31508007600EAB2C4F30F21164800F032F8154805B05F
S31508007610BDE8F04300F02CB80022134B1A60438CE7
S315080076203380838C7380C38C2B80038D6B80C38DD2
S315080076302380038E0D48638083E700BF08D60120A8
S3150800764004D6012000D60120FDFE0B0854FF0B08C6
S31508007650E3880D0873FF0B0894FF0B08B3FF0B08AC
S31508007660CFFF0B08F1FF0B082036012028FF0B0877
S315080076700FB4F0B5002497B01CAB53F8045B3C2656
S31508007680059334F09DFD1D4B214698694FF47A7297
S31508007690002374F0A9FFB0FBF6F1B1FBF6F306FB85
S315080076A0110006FB1311164F0190CDE90227009130
S315080076B0144A402106A876F02BFE2A46C0F1400659
S315080076C006AD059B3146284476F0FAF8864206A8A8
S315080076D098BF8DF85740B8F02CFA06A90246002044
S315080076E030F068FC02220849002030F063FC0120D3
S315080076F017B0BDE8F04004B0704700BF00800A50DC
S3150800770039000C0820000C08EDDD0C081FB503AA8B
S31508007710019204220023009204494FF4707204482F
S31508007720039399F0A4FF05B05DF804FB40000C082C
S31508007730C173000870B58025084C094E04F500533E
S3150800774001461D64304697F09FF904F580540021E0
S31508007750304697F099F9256470BD00BF00C0035004
S3150800776000C00550F8B580260D46094C094F04F5AA
S31508007770005340EA06011E64384697F085F904F579
S3150800778080542946384697F07FF92664F8BD00BF2D
S3150800779000C0035000C005502DE9F04101F108036F
S315080077A023F0070300AFADEB030D4A1C04460D4654
S315080077B068460021B8F082FA722380228DF80030DC
S315080077C00D4B0E481A649DF8001097F05DF96E4649
S315080077D0DFF828802544AC4205D18022084B1A647C
S315080077E0BD46BDE8F081404616F8011F97F04CF9F2
S315080077F004F8010BEFE700BF00E0035000C0055096
S3150800780000D00350F8B50C46064601F1080323F0EC
S31508007810070300AF4D1CADEB030D2A460021684651
S31508007820B8F04CFA24EAE472AD1AA11A31440DEB09
S315080078300500B8F0E9F86D46F823802205F8013905
S31508007840084B094E1A646C44AC4204D18022074B9B
S315080078501A64BD46F8BD304615F8011F97F014F9AD
S31508007860F2E700BF00E0035000C0055000D0035007
S31508007870F7B57020FFF75EFF7020FFF75BFF012862
S31508007880014618D94448FFF7F3FE4448FFF7F0FECF
S3150800789030210520FFF766FF01215520FFF762FF1B
S315080078A002203AF0B9F831210520FFF75BFF0025E1
S315080078B0284603B0F0BD0028F9D07520FFF73AFF37
S315080078C007467420FFF736FF04467020FFF732FF9D
S315080078D004210DEB0100FFF75FFFBDF806503048A5
S315080078E02C442946A4B2BDF80460FFF755FF04EB03
S315080078F0072189B20C1DA4B2B4F5804F24BFA1F5A7
S315080079004F513C394FF0750028BF8CB2FFF712FF74
S3150800791007467420FFF70EFF00EB0720844217D0B6
S315080079202048FFF7A5FE7520FFF704FF07467420D9
S31508007930FFF700FF214600EB07221B48FFF798FEDA
S315080079407520210AFFF70EFF7420E1B2FFF70AFF40
S3150800795016F43F4F04D1A5F14003B3F5B86FA7D984
S3150800796031462A461148FFF783FEF10502D510482D
S31508007970FFF77EFEB20502D50E48FFF779FE3304FF
S3150800798002D50D48FFF774FEB5F5C06F90D90B48C0
S31508007990FFF76EFE8CE700BF44000C0854000C0885
S315080079A02E31022077000C0889000C08C2000C084A
S315080079B0E6000C08F6000C0805010C0817010C086F
S315080079C0F8B52A4E35880220FFF7B4FEC30749D416
S315080079D07B20FFF7AFFE07467A20FFF7ABFE441978
S315080079E004EB0724A4B2B4F5406F28BFA4F540649D
S315080079F031784FF07C0028BFA4B2FFF7B3FE318878
S31508007A007D20090AFFF7AEFE29461948FFF7FAFE58
S31508007A1001210220FFF7A6FE7B20FFF78BFE064614
S31508007A207A20FFF787FE00EB0620844218D02A4604
S31508007A3021461048FFF71CFE7B20FFF77BFE054614
S31508007A407A20FFF777FE294602460B48FFF710FE15
S31508007A507B20210AFFF786FE7A20E1B2FFF782FE35
S31508007A600020F8BD052039F0D7FFACE7FED5012088
S31508007A702E3102202B010C0860010C0870B5012379
S31508007A8004220721002034F0CBF8042200231146F3
S31508007A90012034F0C5F84FF4966039F0BDFF102286
S31508007AA0854BC8201A6739F0B7FF2820FFF742FE32
S31508007AB02920FFF73FFE2A20FFF73CFE2B20FFF781
S31508007AC039FE2820FFF736FE05462920FFF732FE45
S31508007AD006462A20FFF72EFE04042B20FFF72AFE6F
S31508007AE044EA06242C4344EA00617448FFF7C0FDC3
S31508007AF040F60303724C00252380812363804FF4EC
S31508007B00C043E38049F26E03238140F251230121E9
S31508007B1028466381A580FFF725FE012039F07CFF02
S31508007B2029462846FFF71EFE01212846FFF71AFEBA
S31508007B30012039F071FF4FF47A7039F06DFF29464C
S31508007B402846FFF70FFE01211E20FFF70BFE2946E8
S31508007B501F20FFF707FE6378190718D4062B8BBF7B
S31508007B604FF48055574A40F2E11132F8131098BF86
S31508007B70554A4FF0040098BF32F8135076F046FE87
S31508007B800020294676F042FE0A2039F045FF1025E6
S31508007B904E4EE8B216F8011F0135FFF7E3FD162D24
S31508007BA0F7D10025EA1F5142514105F11600C901D6
S31508007BB0C0B20135FFF7D6FD082DF3D14448FFF7CB
S31508007BC057FD1025434EE8B2FFF7B4FD01350146CF
S31508007BD03046FFF74DFD162DF5D13F48FFF748FD16
S31508007BE000210846FFF7BEFD00210220FFF7BAFD77
S31508007BF030210520FFF7B6FD3F210820FFF7B2FD2B
S31508007C003A210920FFF7AEFDFF210A20FFF7AAFD5A
S31508007C1000212F20FFF7A6FD90212D20FFF7A2FDBA
S31508007C2001213920FFF79EFD2C210120FFF79AFD3F
S31508007C30BF217E20FFF796FD6378082B01D0062B1F
S31508007C400DD1F925012076F004FE830607D402201B
S31508007C5039F0E2FE013DF5D12048FFF709FD112074
S31508007C6076F0F7FDC0F30F351D48FFF701FD6B1ED3
S31508007C70072B1BD8DFE803F004141A161A1A1A1869
S31508007C801848FFF7F5FC1848FFF7F2FCA1787F20A3
S31508007C90FFF768FD31210520FFF764FD002070BD60
S31508007CA01248EEE71248ECE71248EAE72946124876
S31508007CB0FFF7DEFCE7E700BF00D003507A010C08A7
S31508007CC038D301202C020C081E020C083DD30120D3
S31508007CD08A010C0897010C083E520D089B010C08F6
S31508007CE0B6010C08C4010C0817020C08D5010C08CB
S31508007CF0E6010C08F8010C080A020C0840F2011308
S31508007D0070B50025044603801B4B1C301A7E40F8CC
S31508007D100C5C00F81A2C194A40F8085C116840F8FF
S31508007D20045C40F8191C5168127A40F8151C00F8D2
S31508007D30112C134A126840F8102C1E7E59693246D7
S31508007D40B7F062FE06F11C002946C6F1100220446F
S31508007D50B7F0B4FF4022294604F12C00B7F0AEFF75
S31508007D608022294604F16C00B7F0A8FF054B1B6872
S31508007D70C4F8EC3070BD00BF30360120AE020C08E6
S31508007D8008D601203A020C0870B52A4B1D682B78D4
S31508007D90022B4AD104222849A818B7F065FF0446E1
S31508007DA0002842D1254E05F11C00327E7169B7F0D4
S31508007DB05BFF00283BD1224A2B691188C6F822307E
S31508007DC005F1F0031944994200D870BD1A78332A90
S31508007DD026D009D8032A14D0062A17D0012A0BD090
S31508007DE05A7802321344EEE7362A14D0FF2AECD02A
S31508007DF0352AF5D19878F3E7D3F80220C6F8262075
S31508007E00EEE7D3F80220C6F82E20E9E7D3F80220D9
S31508007E10C6F82A20E4E7D3F80220C6F81920DFE7D7
S31508007E20D3F80220C6F81E20DAE70020CDE7204660
S31508007E30CBE700BFD0C40120AA020C0830360120C7
S31508007E40FED5012040F2291373B501267C4C8DF826
S31508007E50076025889D4242D0B5F5AB7F00F08A8041
S31508007E60002D40F0E380774876F0B4F8A378042B29
S31508007E7049D04FF47A732382734BA6701D60734EF4
S31508007E807348356876F0A6F82846FFF737FF352396
S31508007E9085F8F0300123372285F8F13085F8F2307D
S31508007EA085F8F530062385F8F32085F8F7300322A0
S31508007EB0FF23306805F1F90185F8F830091A85F8C5
S31508007EC0F42085F8F6205EF02DF9218A6148AFF096
S31508007ED058FB00238DF8073040F2291323809DF8BC
S31508007EE00730002B00F0A9805B4D2B78990752D5F7
S31508007EF05A4876F06FF8FFF747FF022870D1A0704E
S31508007F004FF47A732382514E5548356876F062F8F5
S31508007F102846FFF7F3FE352385F8F030012385F868
S31508007F20F130032385F8F230362385F8F33004233D
S31508007F30D4F8192085F8F43085F8FA30D4F82230C8
S31508007F40C5F8F520C5F8FB303222FF23306805F561
S31508007F50807185F8FF30091A85F8F9205EF0E2F895
S31508007F60218A3C48AFF00DFB00238DF807304FF40B
S31508007F70AB7323809DF80730002B5ED0364E3378DE
S31508007F809B0732D5FFF700FF052844D1354876F020
S31508007F9021F803231FE02F48AFF0FFFA00284CD042
S31508007FA02B789A07A4D4304876F014F84EF65F2258
S31508007FB0238A93428CBF4FF47A735B00224A98BF98
S31508007FC09BB2238213680133052B136008D927480F
S31508007FD076F000F80523A3701948FFF799FA21E00F
S31508007FE0A378022B7FF44BAF8AE71A4D2846AFF0E9
S31508007FF0D4FA10B3337813F00203C3D142F21071E6
S31508008000228A8A4217D802F57A722282A378032B2B
S315080080107FF479AFE0E70628F8D1154875F0DAFF5E
S315080080200523A370002362689380636000238DF89C
S315080080300730238001E025F8083C02B070BD00BF78
S31508008040303601203F020C082C360120D0C401200E
S315080080504E020C08383601202D3102205F020C082A
S315080080608A020C089A020C086E020C087E020C089A
S31508008070A2020C0837B54FF0FF330025084C0193D0
S315080080806061217601A84FF48641A5705DF0D8F9A4
S31508008090606010B14FF488438380258003B030BDFB
S315080080A030360120044B5A6822B19B78032B01D045
S315080080B0FFF7C8BE704700BF3036012013B5124C13
S315080080C0A378032B1ED1637E33B9217E606902B083
S315080080D0BDE81040FFF7CEBFB4F819304FF486411B
S315080080E0ADF80430B4F81B3001A8ADF806305DF0E1
S315080080F0A7F9606010B14FF4884383800423A37006
S315080081000023238002B010BD30360120012313B5A9
S315080081108DF80730038D04463BB1FF2B10D00023A2
S3150800812002208DF80730238512E0CC21B0F8AC2068
S31508008130084B01FB02335B7E1B07F0D0FF23038548
S315080081402246054904F128005DF026F80028E6D104
S3150800815002B010BDCCC001205D810008F0B51C4BF3
S3150800816093B01A8859881B4B18885C881A4B5E8806
S315080081701D88370AF6B20F962E0AEDB20D95250A16
S31508008180E4B20B94040AC0B2144B0990080AC9B2A7
S315080081900791110AD2B205925A79089004921A796F
S315080081A00F480392DA78069102929A78109701920C
S315080081B05A780E9600920C950A9440F20A611B783A
S315080081C0084A006876F0A4F880B213B0F0BD00BF84
S315080081D008D6012000D6012004D60120E3880D0820
S315080081E0D0C4012082040C08F8B50546094E56F895
S315080081F0044B0CB908480BE027683846B7F099FCD9
S31508008200294602463846B7F013FC0028EFD16068C5
S31508008210F8BD00BFF439022099E80708002230B5F6
S315080082200A4DD3B2EC5C54B1C35C0D2B07D00A2BB4
S3150800823005D09C4202F10102F3D0002005E0044B70
S3150800824001200B6041F272134B6030BD9C060C088E
S31508008250AB060C08012337B58DF80730038D0446A5
S315080082600D4683B1C43B9AB2112A2FD8112B2DD8AB
S31508008270DFE803F00B2C2C2C212C2C402C4E2C5CEC
S315080082802C6A2C782C80C42303852846B7F051FC29
S315080082902946024604F12800AFF03CF910B900203F
S315080082A003B030BD2E2104F18200B7F093FC0546D9
S315080082B090B9C82323853248B7F03BFC02463049BB
S315080082C004F12800AFF026F90028E8D000230220A0
S315080082D08DF807302385E3E7014605222948B7F0DC
S315080082E0A7FB28B1062229462748B7F0A1FB38B9CB
S315080082F0CB2323852548B7F01CFC24490246DFE733
S31508008300042229462248B7F093FB38B9CD232385A2
S315080083102048B7F00EFC1F490246D1E70422294639
S315080083201D48B7F085FB38B9CF2323851B48B7F01E
S3150800833000FC1A490246C3E7042229461848B7F042
S3150800834077FB38B9D12323851648B7F0F2FB1549D0
S315080083500246B5E7042229461348B7F069FB38B93F
S31508008360D32323851148B7F0E4FB10490246A7E753
S31508008370D52323850E48B7F0DCFB0D4902469FE757
S31508008380D8020C08D2020C08CB020C0873030C089E
S31508008390C6020C0858030C08C1020C083C030C085A
S315080083A0BC020C0820030C08B7020C0803030C08CF
S315080083B08F030C08012313B58DF80730038D044687
S315080083C043B1662B08D0002302208DF80730238599
S315080083D002B010BD6623238522460A4904F1280007
S315080083E05CF0DAFE0028F3D0D4E92731D4F89820D7
S315080083F05B1A0A44002BC4F89C30C4F89820E9DCC0
S31508008400E1E700BF0984000810B50A4B04461B685B
S31508008410D0F898105A8AD0F89C309A42A8BF1A46C3
S31508008420054BC0F8A0201868B7F0EEFAB4F8A0001B
S3150800843010BD00BFC8C40120D0C40120012373B5F4
S315080084408DF8043083880446B3F5827F54D006D865
S31508008450FBB1FF2B1FD000238DF804302BE040F230
S3150800846023129342F7D1261D0A2130465CF0E4FE1A
S3150800847010B30822AD4904F15000B7F0D9FA054601
S31508008480002852D13046AFF06DF8204480F84E509F
S315080084904BE0FF2383802021201D5CF0CDFE58B1E0
S315080084A00422A34904F15000B7F0C2FA08B3102217
S315080084B0A04B1A700023A38094F89630012B40F045
S315080084C030818DF80530B4F84C30002B48D0E43BA9
S315080084D09AB20E2A00F296800E2B00F29380DFE8FD
S315080084E003F05391915D91916591919191917D914F
S315080084F05D004FF48273A380261D202130465CF070
S315080085009BFE0028D8D094F850302F2BCFD194F862
S31508008510513004F18205202B0BD1142286492846B6
S31508008520B7F098FA012384F8963040F22313A38013
S3150800853099E794F85400A0F13003032B05D876F098
S31508008540BAF9002384F85430E7E73046AFF00AF862
S3150800855000232044142280F84F3004F15001DEE74E
S3150800856004F1820504F1980631462846FFF756FEBF
S31508008570C8B931467148FFF751FE28466F49B7F02A
S315080085801CF8E423A4F84C3020466D49FFF762FE38
S31508008590002800F0C680E723A4F84C302046FFF7F1
S315080085A009FF60BBBDE0EA23A4F84C3020466549C4
S315080085B0FFF750FE002800F0B4802E2104F1820057
S315080085C0B7F095F8002800F0AE8006225E49B7F0AD
S315080085D02FFA002840F0A780F023E36401238DF8E2
S315080085E00630B4F84E30942B63D011D8002B58D0EF
S315080085F0922B3FD000238DF80630A4F84E30102277
S315080086004C4B1A7000238DF80530A4F84C3088E0DE
S31508008610B32BEFD101238DF80730238D002B74D0AF
S31508008620732B74D00023D4F8A0208DF80730238547
S31508008630D4F898301344C4F89830D4F89C309B1A70
S315080086402DE0D4F898502A78252A3CD16A78212A30
S3150800865039D1033BEA1CC4F8A420C4F8A830AB7887
S315080086603A2B23D104F19801281DFFF7D7FD922351
S31508008670A4F84E302046FFF79DFE002851D0D4F8C6
S31508008680A4500A212846B7F032F80130D4F8A830A9
S31508008690451BADB25B1BC4E92903C4F89800C4F8AE
S315080086A09C30D4F89C30002BCBDCA3E79423A4F8A9
S315080086B04E30D4F8A400FFF797FDD4F8A41003466B
S315080086C020469847D9E7214A1668728A9A42D4BF43
S315080086D0C4F8A020C4F8A030297825291ABF252176
S315080086E02846681CB7F003F858B1854209D0401BE4
S315080086F0C4F8A000738A8342D4BFC4F8A030C4F873
S31508008700A000B323A4F84E3084E773232385D4F856
S31508008710A020D4F8981004F12800AEF0FBFE00283B
S3150800872080D102B070BDF22336E700BF5B040C08A7
S315080087307D040C082D3102206E040C0864040C0814
S31508008740AC030C0807040C08CB020C08C8C40120AB
S31508008750F8B51A4A137813F030052DD118062BD41C
S3150800876017490C68590604F11C0617D504F16C075D
S315080087703122394604F12000AEF0F9FE312239469D
S3150800878004F14400AEF0F3FEA4F8685084F8B25041
S3150800879025773046BDE8F840FFF750BE13F00803CA
S315080087A008D0237F0133DBB2132B2377F1D920239B
S315080087B01370EEE72377ECE7F8BD00BF2D310220F2
S315080087C0C8C4012010B5234C32F026FC236F0120C3
S315080087D023F0070343F00203236796F08CF8D4F8D6
S315080087E02031002023F0070343F00103C4F82031A9
S315080087F0D4F8283123F0070343F00103C4F82831DD
S31508008800D4F8403123F0030343F00203C4F840319F
S31508008810D4F8603123F0030343F00203C4F860314F
S31508008820D4F8403223F0030343F00203C4F840327D
S31508008830D4F8003223F0070343F00203C4F80032E9
S31508008840D4F8083223F0070343F00203C4F80832C9
S3150800885010BD00BF0080005007B501A833F0DCFB4F
S315080088609DF80530012B14D19DF804308BB94FF4CF
S315080088708012184B1849586E03F580535A664B6B8D
S3150800888023F0E05343F040634B63C3025CBF134BD2
S315080088905A6637F059FA2FF063FC37F06BF897F001
S315080088A059FD37F001F997F0CDFD37F0B9F897F093
S315080088B0C3FD37F075F8FFF785FF2FF045FC2FF05D
S315080088C035FF30F04FFC3BF0A7F903B05DF804EB39
S315080088D038F070B8008000500040005A00A00050E0
S315080088E008B5044897F042FDBDE80840024830F054
S315080088F02DB900BF34400D08FC39022008B50448DC
S3150800890095F0AAFDBDE80840024895F0A5BD00BF50
S31508008910A81A0C08901A0C08024B0349186830F07C
S31508008920C7BC00BF383A0220183A022018B1034BD8
S315080089301860002070472520704700BFE8360120E0
S3150800894010B5054C0549206831F086FA2068BDE85F
S315080089501040FFF7EBBF00BF683B02203C3A0220FD
S3150800896070B58B680646012B0D4614468CB025D08B
S31508008970022B33D0002B3ED119461C2205A8B7F08E
S315080089809DF9214605A876F026FC044638B92946FD
S31508008990304605AA0BF050FC00283ED1044629466D
S315080089A030460023852205F04FF9234602211D2073
S315080089B01B4A0CB0BDE870408FF01CB80023114666
S315080089C005A8ADF8143076F03FFC04460028E6D139
S315080089D02946304605AA0BF0BBFCDDE7114605A87B
S315080089E076F034FC04460028D9D12946304605AA33
S315080089F00BF016FDD0E70023812205F025F9D5E90D
S31508008A00012391B2120C01929AB2029100920121AD
S31508008A101D20044A1B0C8EF0EDFF0CB070BD00BF84
S31508008A20F41A0C08C01A0C0870B58B680646022B97
S31508008A300D4614468AB026D0042B36D0002B41D1D9
S31508008A400022ADF810300023214604A8CDE90623FC
S31508008A5076F0B9FA044638B92946304604AA0CF025
S31508008A6083F9002840D1044629463046002385224A
S31508008A7005F0EAF8234602211D201C4A0AB0BDE883
S31508008A8070408EF0B7BF1822002104A8B7F016F977
S31508008A90214604A877F041FA04460028E4D129467D
S31508008AA0304604AA0CF092FADBE7114604A876F0E1
S31508008AB0B3FA04460028D7D12946304604AA0CF052
S31508008AC0CBF9CEE70023812205F0BEF8D5E90123CC
S31508008AD091B2120C01929AB20291009201211D20C4
S31508008AE0034A1B0C8EF086FF0AB070BDF41A0C08F8
S31508008AF0C01A0C0870B58B6806460D4688B0ABB12F
S31508008B00012B36D00023812205F09EF8D5E90123F2
S31508008B1091B2120C01929AB20291009201211D2083
S31508008B201A4A1B0C8EF066FF08B070BD00200021A3
S31508008B30CDE90601114604A8CDE9043376F06FFAAB
S31508008B40044638B92946304604AA81F088FA00282E
S31508008B50EAD10446294630460023852205F074F8F2
S31508008B60234602211D200A4A08B0BDE870408EF04F
S31508008B7041BF114604A876F07BFA04460028E9D1DD
S31508008B802946304604AA0CF069FDE0E7C01A0C082D
S31508008B90F41A0C0870B50D46AB68064611469CB02B
S31508008BA0042B5BD8DFE803F003305A3F4E0000235E
S31508008BB004A8ADF810308DF812308DF814308DF801
S31508008BC020308DF830308DF840308DF850308DF8E3
S31508008BD0603077F0C3FE044638B92946304604AA01
S31508008BE00CF048FE00284CD104462946304600239E
S31508008BF0852205F029F8234602211D20224A1CB0A9
S31508008C00BDE870408EF0F6BE002304A8ADF810301B
S31508008C1076F09EFB04460028E7D12946304604AA8A
S31508008C200DF004F9DEE7002304A8ADF8103076F05D
S31508008C3091FB04460028D8D12946304604AA0CF0F0
S31508008C4003FFCFE704A876F087FB04460028CCD1BB
S31508008C502946304604AA0DF043F9C3E700238122CA
S31508008C60294604F0F1FFD5E9012391B2120C0192CD
S31508008C709AB20291009201211D20044A1B0C8EF023
S31508008C80B9FE1CB070BD00BFF41A0C08C01A0C0857
S31508008C9070B58B6806460D46144694B0052B7CD8ED
S31508008CA0DFE803F00325354C5C690023214604A858
S31508008CB0CDE90533ADF8103075F089FF044638B9AB
S31508008CC02946304604AA81F082FC002877D104465A
S31508008CD0294630460023852204F0B6FF23460221A2
S31508008CE01D20384A14B0BDE870408EF083BE0023BC
S31508008CF0214604A8ADF8103075F06BFF044600282D
S31508008D00E6D12946304604AA81F0C2FCDDE704A86C
S31508008D108CF08DFD002204A811468DF848208CF0B1
S31508008D20C9FD214604A877F0E0FB04460028CFD108
S31508008D302946304604AA0DF0DFFAC6E70023214685
S31508008D4004A8ADF8103075F046FF04460028BFD1D8
S31508008D502946304604AA0DF02BFBB6E7214604A89F
S31508008D6075F03BFF04460028B2D12946304604AACE
S31508008D700DF098FAA9E70023214604A8CDE90533A2
S31508008D80ADF8103075F03DFF04460028A0D12946FD
S31508008D90304604AA81F0C9FB97E70023812204F034
S31508008DA053FFD5E9012391B2120C01929AB20291AE
S31508008DB0009201211D20044A1B0C8EF01BFE14B0E4
S31508008DC070BD00BFF41A0C08C01A0C0870B58B6881
S31508008DD006460D4686B0ABB1402B32D00023812221
S31508008DE004F032FFD5E9012391B2120C01929AB22E
S31508008DF00291009201211D201A4A1B0C8EF0FAFDE1
S31508008E0006B070BD114605A8ADF8143075F07CFEA5
S31508008E10044638B92946304605AA81F077FD002868
S31508008E20EED10446294630460023852204F00CFF7D
S31508008E30234602211D200C4A06B0BDE870408EF07C
S31508008E40D9BD0023114605A8ADF8143075F07EFE8D
S31508008E5004460028E6D12946304605AA0DF09CFBB3
S31508008E60DDE700BFC01A0C08F41A0C082DE9704398
S31508008E700D46AB680646114690B00B2B00F2A28051
S31508008E80DFE803F006A026A035A04661A07281900F
S31508008E90002304A8CDE9043376F0DBF9044640B98B
S31508008EA02946304604AA0FF0CBF9002840F09D80E9
S31508008EB00446294630460023852204F0C5FE23468B
S31508008EC002211D204A4A10B0BDE870438EF092BDBB
S31508008ED0002304A88DF8103076F0BDF90446002862
S31508008EE0E7D12946304604AA0FF048F9DDE7002302
S31508008EF004A8CDE904338DF8183076F0B3FD04469E
S31508008F000028D6D12946304604AA0FF079FACCE7CC
S31508008F1000234FF000084FF0000904A8CDE90433F8
S31508008F20CDE90933CDE90C898DF81830ADF838301C
S31508008F3076F087FE04460028BBD12946304604AAA7
S31508008F400EF034FEB1E7002304A8CDE904338DF80A
S31508008F50183076F074FE04460028AAD12946304611
S31508008F6004AA0EF075FDA0E7002304A8CDE9043392
S31508008F7076F09BF9044600289BD12946304604AA78
S31508008F800FF004F891E7002304A88DF8103076F066
S31508008F90AEF9044600288CD12946304604AA0FF0BB
S31508008FA077F882E7002304A8CDE9043376F0A1F91F
S31508008FB0044600287FF47DAF2946304604AA0EF001
S31508008FC025FC72E700238122294604F03DFED5E9F7
S31508008FD0012391B2120C01929AB2029100920121D8
S31508008FE01D20044A1B0C8EF005FD10B0BDE87083E9
S31508008FF0F41A0C08C01A0C0870B58B6806460C469D
S3150800900086B0D3B9114605A876F079F8054628B989
S315080090102146304605AA12F065F900BB21463046BE
S315080090200023852204F010FE2B4602211D200D4A3E
S3150800903006B0BDE870408EF0DDBC0023812204F046
S3150800904003FED4E9012391B2120C01929AB202915D
S31508009050009201211D20044A1B0C8EF0CBFC06B0A1
S3150800906070BD00BFF41A0C08C01A0C0837B543685F
S3150800907004463F2B154605D82F2B14D8032B61D051
S31508009080042B57D09AB2009201211D20394A1B0C95
S315080090908EF0B0FC0023C3222146284603B0BDE863
S315080090A0304004F0D1BDA3F130020F2AEAD801A05E
S315080090B050F822F005910008859000088590000870
S315080090C015910008859000086591000885900008AC
S315080090D0859000088590000885900008859000080E
S315080090E085900008F59000088590000855910008BD
S315080090F0259100080A462846214603B0BDE83040B7
S31508009100FFF72EBC0A462846214603B0BDE8304084
S31508009110FFF78ABC0A462846214603B0BDE8304018
S31508009120FFF7E8BC0A462846214603B0BDE83040AA
S31508009130FFF730BD0A460146284603B0BDE8304071
S31508009140FFF7A6BD0A460146284603B0BDE83040EB
S31508009150FFF73CBE0A462846214603B0BDE8304024
S31508009160FFF784BE0A462846214603B0BDE83040CC
S31508009170FFF742BF1D1B0C0840F20113984219D095
S31508009180B0F5817F05D23C280CD099280FD0002055
S31508009190704740F20E53984221D0134B9842F6D1AD
S315080091A0122918E002298CBF002001207047481EAA
S315080091B00628F8E72929EAD8192903D8012909D858
S315080091C0012070474FF20913A1F11A00C34003F0BA
S315080091D001007047032914BF0020012070470029A9
S315080091E0EED0881E0128DEE705FCF1FF48F20403ED
S315080091F002889A4202BF027A014B1A70704700BF72
S31508009200C2D6012002211D20014A8EF0F3BB00BF01
S31508009210391B0C0802211D20014A8EF0EBBB00BF4A
S31508009220491B0C0808B5044A02211D208EF0E2FBF2
S31508009230FF22024B1A7008BD581B0C082444022052
S3150800924070B5294D037D04462B70837D23B1032118
S315080092502120264A8EF0CEFB2B78FE2B22D0FF2B20
S3150800926030D00B2B37D80B2B35D8DFE803F0061296
S31508009270063434343434343434128FF0D2F8036874
S3150800928041F288315D692346194AAC46BDE870400B
S3150800929060478FF0C6F8036842F210715D69144A98
S315080092A02346F2E78FF0BDF8036822465B6A104949
S315080092B098478FF0B6F803684FF47A715D690C4ADF
S315080092C02346E2E78FF0ADF803682246BDE8704012
S315080092D05B6A07491847FF232B700221BDE87040D7
S315080092E01D20044A8EF086BB24440220721B0C08FB
S315080092F025920008A51B0C0810B50A200C460E4A34
S3150800930010213BF0A1F80D4B186030B90C4822F03B
S3150800931023FB40F2017078F0E3F82046094A074932
S315080093203AF018FD30B9084822F016FB40F20270F0
S3150800933078F0D6F8002010BD401E0C0870380120C1
S31508009340BA1B0C081C1E0C08DD1B0C0808B50948BE
S3150800935090F0D4FA68B1084890F0CDFB064890F032
S3150800936033FC064824F00EFCBDE80840014890F09E
S31508009370CEBA08BD089E002028BB0020486E0120F2
S3150800938008B5084B18683AF071FE013008D106484E
S3150800939022F0E2FABDE8084040F2067078F0A0B87C
S315080093A008BD00BF78380120F71B0C084FF47A7106
S315080093B008B5094B8002B0FBF1F118683AF030FEA7
S315080093C040B1064822F0C8FABDE8084040F20570E8
S315080093D078F086B808BD00BF783801200F1C0C0845
S315080093E008B540F6B831054822F0B6FA40F6B83066
S315080093F0FFF7DCFF0122024B1A7008BD281C0C0877
S31508009400C1D6012008B5FFF7BBFF054B1A7832B164
S3150800941000221A700348BDE8084022F09DBA08BD2C
S31508009420C1D60120671C0C0808B5084B0A21186824
S315080094303AF0F6FD40B1064822F08EFABDE808403B
S3150800944040F2057078F04CB808BD00BF74380120AA
S31508009450871C0C0808B5084B0146186848B1002354
S3150800946018223BF037F830B10448BDE8084022F02E
S3150800947073BA0348F9E708BD703801209F1C0C0829
S31508009480CC1C0C081FB50123ADF80030044B019025
S3150800949068460393FFF7DEFF05B05DF804FB00BFDF
S315080094A0CD940008CB68084603B11847014822F056
S315080094B053BA00BFED1C0C0800220249024825F0E9
S315080094C02FBA00BF91960008089E00200388012B3A
S315080094D006D1044B1B780BB9FFF782BFFFF7ECBF29
S315080094E0704700BFC1D6012010B5A4B003AB0193E5
S315080094F0812301AC029301F05DFA214601F056FF83
S3150800950028B994E8030014F019FD24B010BD0248E8
S3150800951022F022FAF9E700BF1D1D0C0800230246B7
S31508009520194610B504461C483AF034FD1B4B186022
S3150800953030B91B4822F010FA40F2047077F0D0FFD9
S3150800954000232246012117483AF024FD164B1860DD
S3150800955030B9164822F000FA40F2047077F0C0FFDE
S315080095601349144822F0F8F90121134822F0F4F9B6
S3150800957021F02EF803685B6F98470120FFF7B4FFC8
S3150800958000220E490E4890F07AF90E4890F00AFB30
S315080095900D4B1870002010BD8594000878380120FE
S315080095A0351D0C085F130808743801204F1D0C0878
S315080095B0CE570C08691D0C088D1D0C08ED91000886
S315080095C0089E002028BB0020C2D601201FB5002314
S315080095D0CDE90233094B0A4C01930223012100937A
S315080095E02046084B084A0DF011F82046074A084954
S315080095F004B0BDE81040B4F040BF00BF4192000877
S315080096004C3701201592000805920008F03902200F
S315080096104166010810B50379012B05D1BDE8104054
S315080096204FF49670FFF7C2BE124B1B781BB1BDE80C
S315080096301040FFF7E7BEFFF7A3FE0F48ADF057FF50
S315080096400E4B1C7894B90E4890F053F922464FF405
S3150800965061710C4884F05EFF0446094890F057F99A
S3150800966034B10948BDE8104022F076B90748F9E751
S3150800967010BD00BFC1D6012040BE0120C2D60120C0
S31508009680089E0020D88F0020AA1D0C08D81D0C089B
S3150800969010B50121094826F0E1FA20B101F08AF94E
S315080096A0012178F050F9064825F088F820F090FF57
S315080096B0BDE8104003681B6F184700BFAC6F012058
S315080096C0089E0020002370B50022C0E9023300235B
S315080096D004460D46C0E90023054B1A6852F83C0CAF
S315080096E01A581844566A227CB047657470BD00BF84
S315080096F0AC6F0120014890F09BB900BF24CA002036
S31508009700014890F09AB900BF24CA002048F2010225
S3150800971010B50388934212D190F90830012B15D160
S315080097200B4822F019F98EF07CFE036840F6B83132
S315080097305C69084AA446BDE810400023604748F221
S315080097400202934202D190F90930E7E710BD00BF43
S31508009750581E0C0883130808044A08B58368026073
S31508009760243242600BB1B6F05CF908BDB01F0C0894
S31508009770A0F10400F0E700BF10B50446054B0360EE
S315080097804033436013F0C4F82046FFF7E5FF204650
S3150800979010BD00BFBC870C08A0F10400ECE700BFB1
S315080097A010B50446074B03F1440203606033426078
S315080097B0C0F84C3313F0ACF82046FFF7DDFF20461F
S315080097C010BD00BF54880C08A0F10400E8E7A0F516
S315080097D05370E5E708B5094822F0BEF8084890F046
S315080097E0B9FB50B90121064825F00CFC28B90548F3
S315080097F022F0B2F8044825F091FA08BD801E0C083C
S3150800980028BB00209E1E0C0824CA00200B480C4BBF
S3150800981010B5036000230B4C0B492246C0E90133FF
S31508009820C360037443610383B4F027FE2246BDE890
S31508009830104006490648B4F020BE00BF883801200B
S315080098406C050D08F039022069E002087F13080844
S31508009850B03B02207FB504467B497C483FF0DAFBE3
S315080098607B4822F079F821467A4822F075F878483C
S3150800987022F072F8784822F06FF8002108461FF0A7
S3150800988071FB002840F0CC80744D2B784BB92846E4
S3150800989025F01EF900280CBF012300232B7040F089
S315080098A0BF8001F087F8054678F035F8002840F0C3
S315080098B0B780281D20F012FE05F1080020F0A2FD51
S315080098C02146674824F058F9FFF784FF002840F03E
S315080098D0A780644890F00DF8634CD4E8AF3FDB07E7
S315080098E00BD4204697F0CEFB38B1604A60496148F0
S315080098F0B4F0C3FD204697F0CAFB5F4CD4E8AF3FEF
S3150800990013F0010F5D4D1FD1204697F0BBFBD8B170
S315080099105849284613F060F8594B284603F1440283
S315080099202B6060336A60C5F84C3300220023554922
S31508009930C5E9D423C5E9D623C5E9D8234B4AB4F0EB
S315080099409CFD204697F0A3FB4F4CE5634F4D2846F8
S3150800995024F094FBE36865631BB94D4B4D4AE360FD
S315080099605A60A36BF3B94C4DE6686B68002B41D17E
S3150800997005F1140077F03CFD05F11C0077F038FD81
S31508009980EB6803B92B7295F82430444823F0050395
S3150800999085F8243077F02CFD00236E602B7285F84D
S315080099A02430A563E36B0BB93D4BE3633D4D3E4B5A
S315080099B02846E168236288F04DFD236A28462B6114
S315080099C087F089FEB0B9E268E5619AB1374B384D40
S315080099D05A60236103F064FD364B02216062364A01
S315080099E02120A3628EF006F82846E16808F084FA7A
S315080099F000B9656100230393304B31480193314B1D
S31508009A00029390F06CF801AB03901F492E48E3626D
S31508009A1015F01CF8044613488FF079FF14B1204658
S31508009A2004B070BD224629490E488FF028FF284801
S31508009A3021F092FF0B4825F02DF804460028EED1B8
S31508009A4000F09CFBEBE700BF637709085F7709081E
S31508009A50B71E0C08EA1E0C08F61E0C08009E00200D
S31508009A60486E0120089E002080380120F039022027
S31508009A70811308086C3B02207C3801200012002064
S31508009A8054880C08A1970008703B022088380120EA
S31508009A90483C022007210220485A0120545A012036
S31508009AA098610020DC570120283C0220D457012069
S31508009AB0985701202C3C0220061F0C08F596000832
S31508009AC028BB002001970008306500200D97000884
S31508009AD0361F0C0810B51648FFF7BCFE08B177F01C
S31508009AE0FFFC144B1448D3F8FC128EF07BFC12488A
S31508009AF020F0E4FC11488FF0FCFE00F05BFF00B19B
S31508009B000C3019F07DFA0D488FF001FF0C4821F052
S31508009B1023FF0C485BF006FA08B177F0E1FC0A4C23
S31508009B2020683AF06BF908B1B5F07BFF206010BDEC
S31508009B305B1F0C0830950020B03B0220089E0020D1
S31508009B40691F0C0840BE01208438012010B50F4853
S31508009B5090F02CFA00210E4A0E483AF0FBF80E4C0B
S31508009B6020600E4821F0F8FE23680BB9B5F059FFBE
S31508009B70064890F02AFA1FF009FA094821F0ECFE87
S31508009B80BDE81040AC2077F0ABBC00BFAC6F01203D
S31508009B90E81F0C08D59A0008843801207B1F0C089A
S31508009BA08E1F0C0810B5044601210C20064A8DF0BC
S31508009BB021FF0023E068A36020B1BDE810400368D8
S31508009BC09B68184710BD00BF0C200C08A0F10400C4
S31508009BD0E8E700BF10B50A4CD4E8AF3FDB070DD461
S31508009BE0204697F04FFA48B10648074B074A0849F6
S31508009BF00360B4F042FC204697F049FA014810BDCC
S31508009C00A4380120A838012034EC0C08F0390220C9
S31508009C101314080810B504460B4B036064334360FD
S31508009C2000F50E702CF066FE636A23B1002204F17B
S31508009C301C0062629847236923B1002204F10800D8
S31508009C4022619847204610BD7C770C08A0F10400D5
S31508009C50E0E700BF10B50446034B40F8343B77F005
S31508009C60EEFB204610BD00BF30710C0837B5C06842
S31508009C700D46144638B901210C200E4A8DF0BAFE5D
S31508009C80002003B030BD1A682146019200221A60EE
S31508009C9001AA0EF0A9FF01A877F0D1FBA38823B982
S31508009CA0E38813B92378402BEAD02B8943F0400385
S31508009CB02B81E5E71F200C08A0F10400D6E700BFBA
S31508009CC0F0B505460C46152003211A4A85B08DF0D5
S31508009CD091FEAF6817B9032005B0F0BD0023ADF8B3
S31508009CE008302389267B23B96389022B1ED1142EBB
S31508009CF002D00123ADF8083060682CF01BF86368C1
S31508009D003246039302AB0093A168384603AB1FF0B3
S31508009D1011FC044603A877F092FB2CB1A86818B189
S31508009D208DF09EFF0023AB602046D5E7002BE0D1DF
S31508009D30402EDDE752200C0873B516480FF040F99F
S31508009D401549164AD1F8FC32154E164D5360A1F541
S31508009D50405133460F4800950FF02AFA124B3361EB
S31508009D6024F03CFC044602460A49304610F00EFB35
S31508009D702946204624F0C4FA40B10C4821F0ECFDEF
S31508009D806D210B4B0B4A0C4874F0A2F96C6002B0BB
S31508009D9070BD00BF4816002030950020D83B022031
S31508009DA0B83B0220681500208051010063200C088A
S31508009DB07F200C0894200C08B2200C0870B50024EB
S31508009DC03248334B334E03606433436000F1080373
S31508009DD0C0E90233304BC0E90440836100F11C033B
S31508009DE0C0E907332D4BC0E90940C0E90B342C4BB9
S31508009DF0C0E90D444364203383640523C0E9204445
S31508009E00C0E92244C0E9644480F83C40046480F810
S31508009E10744080F89841C0F89C4180F8A04180F8C9
S31508009E20B84180F8D04180F8E841C0F81C321D4B93
S31508009E3032461D491D4DC0F83832C0E98F4480F8B6
S31508009E400042C0F8184280F8204280F84442B4F034
S31508009E5014FB324616491748B4F00FFB324616492A
S31508009E601648B4F00AFB2846154B6C6040F8103BC0
S31508009E702C7225F0B1FFC5E93444C5E936443246AB
S31508009E802846BDE870400F49B4F0F7BA48160020D6
S31508009E907C770C08F0390220659F0108C1900108FB
S31508009EA030210C084C310D08159C00086815002057
S31508009EB027140808D83B022029140808B83B0220B2
S31508009EC030710C08559C0008F0B59FB00446342143
S31508009ED0684615F015FCBDF80220BDF800309A4218
S31508009EE02ED000273BF0C2FE02AD0523002215A99D
S31508009EF03BF02CFE082216992846B5F0ABFD2846FD
S31508009F008DF81070B5F015FE0126179BCDE90F5098
S31508009F102046CDE90C378DF83860B5F00AFE8DF885
S31508009F204460CDE912408EF07CFA064B05A90593EC
S31508009F300CAB06932BF0E2FD4FF480603BF02AFC55
S31508009F401FB0F0BDA91408082DE9F04F0446D0E962
S31508009F500098D0E90276364A87B0936A01210593BC
S31508009F600369D2F82CB0D2F834A0956B01934369F3
S31508009F70304A029383690393C369002004938DF0E2
S31508009F8039FD01210020059B2B4A8DF033FD5B46E8
S31508009F9001210020294A8DF02DFD5346012100207C
S31508009FA0274A8DF027FD2B4601210020254A8DF0F2
S31508009FB021FD2B4601210020224A8DF01BFD234658
S31508009FC001210020204A8DF015FD4B460121002075
S31508009FD01E4A8DF00FFD4346012100201C4A8DF0D4
S31508009FE009FD3B46012100201A4A8DF003FD334640
S31508009FF001210020184A8DF0FDFC01210020019B5B
S3150800A000164A8DF0F7FC01210020029B144A8DF0B8
S3150800A010F1FC01210020039B124A8DF0EBFC012183
S3150800A0200020049B104A8DF0E5FC97F09BFBFEE7A9
S3150800A03000ED00E068210C0873210C0887210C0844
S3150800A0409B210C08AF210C08C3210C08D7210C084A
S3150800A050EB210C08FF210C0813220C0827220C08F8
S3150800A0603B220C084F220C0863220C08012108B574
S3150800A070074A084B00208DF0BDFC0648FFF724FF71
S3150800A08097F070FB0449054873F0F0FAFEE700BF45
S3150800A090C85F0D0877220C089A220C08B1220C0812
S3150800A0A000240D4600B59BB06022214602A8019403
S3150800A0B0B5F004FE2B466421094A01A874F028F974
S3150800A0C00121084A01AB20468DF094FC01A8FFF750
S3150800A0D0FBFE97F047FB0449044873F0C7FAFEE70E
S3150800A0E0CA220C08C85F0D089A220C08B1220C086F
S3150800A0F0034B0360034B0B604FF4A0731360704768
S3150800A100644E012064490120034B0360034B0B6036
S3150800A1104FF4806313607047AC480120AC380120C7
S3150800A12000240D4600B59BB06022214602A8019482
S3150800A130B5F0C4FD2B466421074A01A874F0E8F877
S3150800A14001212046054A01AB8DF054FC01A8FFF712
S3150800A150BBFEB5F066FC00BFDD220C08C85F0D0823
S3150800A16001481DF0C3BD00BFE05B0120024B012181
S3150800A170186839F069BE00BF1C4F012010B50D489C
S3150800A1801DF012FD044628B175210B4B0B4A0C48ED
S3150800A19073F09EFF02F0F2F802F038F92146094AF8
S3150800A1A0094839F0D7FD094B186008B9B5F039FCEC
S3150800A1B010BD00BFE05B0120ED220C08F9220C0857
S3150800A1C015230C0894230C0861A100081C4F0120D4
S3150800A1D00021044600B589B01A2201A80091B5F0FD
S3150800A1E06DFD2346074A1E21684674F091F86946B4
S3150800A1F0054821F0B1FB6846FFF766FE3BF03EF9DD
S3150800A200B5F00FFCB8230C08CE230C08024B01212D
S3150800A210186839F019BE00BFF05001200D4BD988D7
S3150800A2209A8889B292B2914211D0D9889A8889B20D
S3150800A23092B291423DBF9A88D8881B89D8882DBF8B
S3150800A2409B8813FA80F0801AC01A80B270470020E3
S3150800A250704700BFD84F0120F8B50E46074628B903
S3150800A260C8211A4B1A4A1B4873F032FF1A4D2C891B
S3150800A2708C4203D2C921194B154AF4E7FFF7CEFFE2
S3150800A280201A80B286421BD8EB88E888E41AA4B262
S3150800A290A6422B6815D92246394613FA80F0B5F03E
S3150800A2A0B3FB2868321B3919B5F0AEFBEB8816FAF2
S3150800A2B083F12B89B1FBF3F203FB121189B2E98012
S3150800A2C0F8BD3246394613FA80F0EDE7EA230C0862
S3150800A2D0F7230C0825240C08D84F01209A240C08CB
S3150800A2E000232DE9F0411A4EC2B01A4FADF80631D7
S3150800A2F04FF0FF330022306801A93AF025F90446E9
S3150800A3000028F5D1BDF8068194F08FF8012105469D
S3150800A310084636F08DFB284694F08BF80E4B4246DD
S3150800A32001A938682FF0C0FE4FF0FF322146012000
S3150800A33039F0D4FD94F079F805462146012036F027
S3150800A34077FB284694F075F823462246D3E700BFE4
S3150800A35034500120683B02200DA200082DE9F8437D
S3150800A360DFF850801E46B8F800901546A3EB09079B
S3150800A3700D4BFFB21C89FFF751FF241AA4B2A7425E
S3150800A38007D8394605EB0900FFF766FF0023A8F84A
S3150800A3900030064832462946054B00682FF0AAFCCD
S3150800A3A0BDE8F843FFF7E2BED84F0120683B02201C
S3150800A3B05DA3000844D3012070B5254E3468002CEF
S3150800A3C045D193F027FF234B234A244D1A604FF4B7
S3150800A3D080729C801A81224980222868DC80214B61
S3150800A3E02FF088FC1F4B80221F4928682FF082FC1B
S3150800A3F04FF482711D4A19203AF026F81C4D214661
S3150800A40028601C4A1C4839F0A5FC306030B940F277
S3150800A41017111A4B1A4A1B4873F05AFE2B6823B9B0
S3150800A4204FF48C71184B164AF5E70B2035F000FDF2
S3150800A4300B2035F0B9FC0423144A0521D364A2F590
S3150800A440805213651248BDE8704094F0ABBA70BDEF
S3150800A450F0500120D84F012063EF0120683B02200D
S3150800A460470E02205DA30008C70D022040250C08F0
S3150800A4703450012060250C08E1A20008B7240C0816
S3150800A480C7240C0825240C08DE240C080020015BD0
S3150800A4900000015B08B5FFF769FE0422014BDA6488
S3150800A4A008BD00BF0020015B10B50C46C2B00146CE
S3150800A4B018B94FF0FF3042B010BD631EB3F5817F67
S3150800A4C0F7D2224601A8B5F09FFA064800231822BB
S3150800A4D0006801A9ADF8064139F0FCFF0028E8D16B
S3150800A4E020B2E8E734500120F0B50C46074685B09F
S3150800A4F0002854D0002952D0FFF790FEA04219D266
S3150800A50093F09AFF05462748274E03AB01A9006832
S3150800A51002AA94F0A2F9338802998B4207D20198CD
S3150800A520C91A184489B2FFF797FE029B338028465A
S3150800A53093F088FF1D4D2E89B44205D9E8211C4B9E
S3150800A5401C4A1D4873F0C4FDFFF768FE844202D317
S3150800A550FFF764FE0446AB88A988F61AB6B2A64287
S3150800A5602B6817D2324613FA81F13846B5F04CFA01
S3150800A5702968A21BB819B5F047FAAB882A8914FAD4
S3150800A58083F3B3FBF2F102FB11339BB2AB8020B22B
S3150800A59005B0F0BD2246384613FA81F1EBE74FF0D5
S3150800A5A0FF30F5E7683B022044D30120D84F01204D
S3150800A5B0EB240C0807250C0825240C0810B58CB0CC
S3150800A5C0044676F0AFFF0021102208A8B5F076FB06
S3150800A5D001230E4A02A8CDE903230D4B05940793E0
S3150800A5E04FF47053029376F090FF029B069394F013
S3150800A5F0A9FE0023000240F00100049001A903A867
S3150800A60001939AF0B7FC0CB010BD00BF127100019F
S3150800A6100906000670B58CB00C461546064676F057
S3150800A62081FF0021102208A8B5F048FB0123114A32
S3150800A63002A8CDE90323104B059607934FF47053F0
S3150800A640029376F062FF029B069394F07BFE00234A
S3150800A650000240F0010021462A460490019303A80F
S3150800A66001AB99F028FE044603A89AF0DEFD2046C1
S3150800A6700CB070BD127100010906000610B50A4B30
S3150800A68086B0144602930023059103901A46CDE935
S3150800A6900033214405A897F021F9002814BFAC20FF
S3150800A6A0002006B010BD00BF471508082DE9F04187
S3150800A6B0BEB0449D98462B6804460E461746002BA6
S3150800A6C057D06B68B3F5007F53D302A89BF0BBF94C
S3150800A6D000213C2207A80691B5F0F0FAD8F8043014
S3150800A6E08BB1CDE900674021D8F80030224A06A888
S3150800A6F073F00EFE06A902A89BF0BCF958B1AC206F
S3150800A7003EB0BDE8F081334640211C4A009706A8B2
S3150800A71073F0FEFDEEE7092102A89BF0A7F9206871
S3150800A720FFF74CFF16A898F0A3FF216816A83DF07E
S3150800A730B7FD04460028E2D116A902A89BF098F9AD
S3150800A74000942346D5E9001202A841F031F90446DF
S3150800A7500028D4D12868B5F0ECF96B680130984226
S3150800A76001D9B5F05EF9686002A89BF070F9204639
S3150800A770C6E72F20C4E700BF84250C089E250C08D1
S3150800A780F0B50C46002197B00646154607A83C22A8
S3150800A7900691B5F093FA402305AACDE9013206AF32
S3150800A7A0009705930E49D4E9002330689AF0AFF96B
S3150800A7B0044698B9059E6B689E420DD832463946BE
S3150800A7C02868B5F021F96B689E4201D9B5F029F9D8
S3150800A7D020466E6017B0F0BD1920FBE7AC20F9E7FC
S3150800A7E009060006F7B5104C1F4623680D4616469F
S3150800A7F09BB1009202211D200C4A8DF0FBF875B121
S3150800A8002268B2420DD828460949B5F0FDF800205D
S3150800A81023683B60206003B0F0BDAE20FBE72F2025
S3150800A820F9E71920F7E700BFF4500120C3250C0803
S3150800A830C70E022038B50D461446134602211D20C0
S3150800A840054A8DF0D7F82B4622460021192062F0DA
S3150800A8508DFF002038BD00BFDF250C0807B5054B66
S3150800A860802200930021044B62F04EFF002003B0C3
S3150800A8705DF804FBC70E0220F450012038B50446E3
S3150800A8800D46204676F06EFE2B7C002857D0052B09
S3150800A89059D0032B17D0042B38D0012B4DD10222C7
S3150800A8A02146284676F01CFF002833D1294628463B
S3150800A8B076F05AFF70BB95F82430002B0CBF0323A3
S3150800A8C005232B74DDE795F825209AB121462846FD
S3150800A8D02A7F76F005FFE8B92946284676F085FFEF
S3150800A8E0C0B995F8253073B90223AA691A442A62B1
S3150800A8F00423E6E72B7D013BDBB2022B9CBF134A00
S3150800A900D25CAA61F0E72B7F0233EEE795F8243094
S3150800A9100BB1232038BDAA690AB91820FAE72146DF
S3150800A920284676F0DDFE0028F4D12946284676F03A
S3150800A93084FF0028EED10523C3E70320EAE7052BA9
S3150800A94001D00D20E6E70020E4E700BFF8250C0853
S3150800A9502DE9F04100240546A046144F86B000F1C3
S3150800A960AC06304601ABC4F180023919CDF8048033
S3150800A970FFF738FFB8B18CB10D4B04AA04938023B6
S3150800A98002A92846CDE90274059376F0E0FFDDE9D1
S3150800A990041285F8B8003046FFF74CFF95F8B80062
S3150800A9A006B0BDE8F081019B1C44DAE7C70F022018
S3150800A9B0470F022000487047F85001200021154B28
S3150800A9C010B5154C03F19802626003F1E0022360AA
S3150800A9D0A26003F58673802204F12800C4E90411F5
S3150800A9E0C4E90611C4E90811E360B5F067F90B4B31
S3150800A9F0C4F8B440C4F8A830094B2046C4F8B030AF
S3150800AA00012384F8B830074A0749BDE81040B3F077
S3150800AA1034BD00BF84270C08F8500120C4280C0850
S3150800AA2004260C08F039022015190808F0B5CB7869
S3150800AA300C461546806885B003B9A830A378032B61
S3150800AA405AD8DFE803F041021A2E00268DF80C606A
S3150800AA5003682188DB6803AA9847D82802D050B132
S3150800AA6005B0F0BD31462A46208876F004FF002856
S3150800AA70F6D10020F4E703A9F5E70026ADF80C6047
S3150800AA80036821885B6903AA9847D82803D0002859
S3150800AA90E6D103A900E031462A46208876F0FEFE74
S3150800AAA0E5E70026039603682188DB6903AA984729
S3150800AAB0D82803D00028D3D103A900E031462A4676
S3150800AAC0208876F0FFFED2E700260396036803AADD
S3150800AAD000929F6A094A4FF400732188B847D8281C
S3150800AAE003D00028BCD1054900E031462B46039A1D
S3150800AAF0208876F0FBFEBAE72620B1E75314022039
S3150800AB002DE9F743054608460C4676F038FD074614
S3150800AB10002845D0264876F025FD254E58B18742AF
S3150800AB203A46314628BF0246204676F0BDFD10B1AA
S3150800AB3003B0BDE8F083DFF87C801D4F28E033685A
S3150800AB40013AC6E90233D8F80031C8F8042158F8A2
S3150800AB502310013303F03F03C8F800312B68019135
S3150800AB603A462846DB6901A998470028E0D12046DD
S3150800AB7076F005FD8146384676F0F4FC81454A466E
S3150800AB80394628BF0246204676F08EFD0028CFD1EA
S3150800AB90204676F0F4FC18B1D8F80421002ACED164
S3150800ABA028462B68DB6803B0BDE8F043184700BFAA
S3150800ABB0BC520120B451012070B504460D460E4E14
S3150800ABC0284676F0CFFC28B923682046BDE87040B1
S3150800ABD09B68184731462846FFF750FE0D28EFD0E8
S3150800ABE048B9236820469B690349984718B902481B
S3150800ABF076F017FFE4E770BDEC52012008B50B4666
S3150800AC00498AB1F5817F15D005D840F201129142E3
S3150800AC100CD0A62009E06FF481728A18012AF8D8A8
S3150800AC201A7D064876F00CFF10B108BDDB6AC360D2
S3150800AC300020FAE7DB6A0361FAE700BFB451012096
S3150800AC4008B503480A7D498A76F0FAFE08BD00BFB2
S3150800AC50B451012070B591F826300C46856803B9C1
S3150800AC60A83594F82730227D23B1618A174876F0F3
S3150800AC70E7FE50BB237D032B26D8DFE803F0160238
S3150800AC800E112B689B6894F82420618A5AB904F13E
S3150800AC902C022846BDE8704018472B681B69F2E766
S3150800ACA02B689B69EFE70022F3E72B68618ADE6A67
S3150800ACB094F8243033B9E26A2846B446A369BDE855
S3150800ACC0704060470022F7E7262070BDB451012086
S3150800ACD010B50A46498AB1F5A27F16D008D840F2BF
S3150800ACE00513994218D0B1F5A17F0ED0A62017E01A
S3150800ACF040F2A1139942F9D180680368DC6A936926
S3150800AD00A446BDE81040D26A604780682C320368C2
S3150800AD10BDE810401B691847127D024876F090FE80
S3150800AD2010BD00BFB45101202DE9F04100254B6844
S3150800AD3092B0052B0746884616468DF805508DF8BD
S3150800AD4006508DF8075040F2B3800A68023B134458
S3150800AD500DF1050102A8CDE903330292059276F0BA
S3150800AD60DDFC0446002840F09F800DF1060102A88C
S3150800AD7076F0D4FC0446002840F096800DF10701D1
S3150800AD8002A876F0CBFC0446002840F08D80D8F85F
S3150800AD9004203368802A00F2868072687F2A40F28F
S3150800ADA0858003F108027E33CDE907329DF8063027
S3150800ADB00692013B0992042B73D8DFE803F03703A8
S3150800ADC0646B5C000020089A069B9A4288BFD41AD6
S3150800ADD0E5B20446002133680BA803F10802CDE961
S3150800ADE007231C22069309930A91B4F067FF0221F0
S3150800ADF006A876F0D1FB9DF8061006A841F080015A
S3150800AE0076F0CAFB9DF8071006A876F0C5FB214622
S3150800AE1006A876F0E6FB294606A876F0BDFB72681A
S3150800AE2005F10A03934245D9B4F0FBFD012200253A
S3150800AE307B682A480C932A4B8DF82C200A93294BB9
S3150800AE40CDE90D5503F50172C0E901230360C3601E
S3150800AE5076F0E7FD244A254B02F50271C3E9011293
S3150800AE601A60DA60224BC3F8045106AA02A90AA896
S3150800AE7076F00BFEA7E701227B688DF82C200C9351
S3150800AE801C4B0A93F1E703227B688DF82C200C9360
S3150800AE90194BF6E704227B688DF82C200C93174B88
S3150800AEA0EFE72A208FE7C224002593E71924FBE75A
S3150800AEB019248FE7083573600AAA2946306822F0F4
S3150800AEC0B1FD9DF80600BDF82820023818BF0120FC
S3150800AED033685A5312B0BDE8F08100BFEC52012026
S3150800AEE018260C084F12022047100220BC520120D7
S3150800AEF0B451012040260C0868260C0890260C0838
S3150800AF0038B500240125144B144803F50172C0E92D
S3150800AF1001230360C360C0E90844057444820475CC
S3150800AF2084610477846276F07CFD0D4B0D4803F549
S3150800AF300272C0E901230360C360C0E908440574CE
S3150800AF404482047584610477846276F06AFD064B50
S3150800AF50C3E9404438BD00BF4F120220EC5201201D
S3150800AF6047100220BC520120B45101202DE9F041BE
S3150800AF70002486B0884617461E460B2201AB03A955
S3150800AF80CDE90344CDE90144CDF8134000F046FE6F
S3150800AF90044650B140F2012398422DD001211F20CA
S3150800AFA0174A03AB8CF026FD26E0019D0A2D01D039
S3150800AFB02F24F3E72A4602A903A872F053FA029A45
S3150800AFC004AB9A42A8F80000F2D12A4602A90DF16C
S3150800AFD0110072F047FA029A0DF113039A4238707B
S3150800AFE0E6D12A4602A905A872F03CFA029A0DF1A2
S3150800AFF016039A423070DBD1204606B0BDE8F081D0
S3150800B000B0260C080023F0B587B001930C46D1E9A9
S3150800B010001201AB00F00EFE40F20123984225D142
S3150800B02002AD2A46144B03F110072E4618685968D4
S3150800B030083303C6BB423546F7D163680F2B02D8DF
S3150800B040192007B0F0BD256806AE134603CBB342F8
S3150800B050286069601A4605F10805F6D110230193A0
S3150800B060019B6268934204D9B4F0DBFC0028E8D15E
S3150800B070F6E700206360E4E7AC280C0810B540F258
S3150800B0806314A142034608D040F29710814215D0B6
S3150800B090B1F5B17F0DD0A62010BD42B11168094B9C
S3150800B0A0A1F57A729A4202D800F0F8FDF4E72F204B
S3150800B0B0F2E702B112681A620020EDE702B11268DF
S3150800B0C05A62F9E7B8820100F0B5B1F5AA7F97B0E0
S3150800B0D0154606461A461C9C3CD8B1F5A07F09D8E9
S3150800B0E040F20513994266D040F2111399425BD09B
S3150800B0F0A6205EE06FF4A07319441329F8D801A3BB
S3150800B10053F821F0F1B10008F1B000080BB20008BD
S3150800B110F1B0000811B2000817B200081DB2000805
S3150800B12023B20008F1B00008F1B00008F1B0000839
S3150800B130F1B00008F1B00008F1B00008F1B000085D
S3150800B140F1B00008F1B0000829B200082FB20008D3
S3150800B15039B20008B1F5C17F00F08B800ED840F2F5
S3150800B160651399427BD0B1F5B37F7DD0B1F5B27F37
S3150800B170BED12346294600F0ADFD19E040F29313EF
S3150800B180994200F0848040F295139942B0D1CDE9F6
S3150800B1900D5205B9EAB933683046D3F880300DA99F
S3150800B1A0984730B90E9B21E02346294600F074FEE5
S3150800B1B048B317B0F0BD00F1280738460392B4F03B
S3150800B1C0B8FC039A0130CDE906050597089215B92A
S3150800B1D00AB1B4F026FC07AB00933046728A318A6E
S3150800B1E005AB00F00DFE0028E3D1089B23600AE0BA
S3150800B1F003681B6B2946304698470028D9D128464C
S3150800B200B4F097FC20600020D3E703689B6BF1E756
S3150800B21003681B6CEEE703685B6CEBE703689B6CE3
S3150800B220E8E70368DB6CE5E703685B6DE2E723465E
S3150800B230294600F0F3FCBBE721230DAF0C93036806
S3150800B2400B970392DB6D0BA99847039A0028B0D198
S3150800B250134620212A4638468CF0F3F9D2E72346CE
S3150800B260294600F043FDA3E72346294600F020FEC1
S3150800B2709EE7CDE909530DB9002BAAD133683046AC
S3150800B2809B6F09A99847002893D10A9BAEE7CDE999
S3150800B2900B520DB9002A9CD133683046DB6F0BA9D7
S3150800B2A09847002885D10C9BA0E700BFF0B54B68EE
S3150800B2B00646602B0C461546A5B029D900278222DA
S3150800B2C0394603A80297B4F0F9FC01AB862230464A
S3150800B2D002A9019700F00AFD40F20123984210D115
S3150800B2E084220C4902A80192B4F08EFB22680199C7
S3150800B2F002A81DF031FE28606368984205D9B4F0AB
S3150800B30090FB0028F2D025B0F0BD60600020FAE777
S3150800B3101920F8E7CF260C0870B50026044696B023
S3150800B3202A220D460BA831460A96B4F0C7FC01AB93
S3150800B3302E2220460AA9019600F0CCFC40F20123F1
S3150800B340984227D118230193174B0AAC03F1180624
S3150800B350224618685968083303C2B3421446F7D11F
S3150800B36000241C22214603A80294B4F0A7FC0199E4
S3150800B37002AA0AA81DF0F0FD6B680646984210D886
S3150800B380024602A92868B4F03FFB6B689E4205D9BD
S3150800B390B4F047FB0028E3D016B070BD20466E60B7
S3150800B3A0FAE71920F8E700BF54270C08F0B500267D
S3150800B3B04B6895B0032B05460C46019602D8192012
S3150800B3C015B0F0BD0CAF01AB2022394600F070FD78
S3150800B3D040F20123984254D14FF08073059302231B
S3150800B3E08DF81830384B284607932B688DF810606F
S3150800B3F01B6EADF81260ADF81A60ADF802600DF17B
S3150800B400020198470028DBD1BDF80220B2F5805F1B
S3150800B41001D3B4F006FBBDF81A30C2F30B0223F4CD
S3150800B420FF5323F01F031343ADF81A302B68284641
S3150800B4305B6B0DF1120198470028C1D12B6828468D
S3150800B440DB6B05A998470028BAD19DF81030BDF8DE
S3150800B45012208DF82030ADF822209DF81730059A75
S3150800B46009921BB19DF818308DF82830BDF81A30AE
S3150800B4702146ADF82A30079B08A80B9390F0EBFEFF
S3150800B4809EE700289CD1019B0BB9D82098E70F4A64
S3150800B49023681188927819809A7062680333033A90
S3150800B4A0CDE90232019B3846194602AA0897099344
S3150800B4B02AF010F9002883D1039B6268033393426C
S3150800B4C0A7D863607CE700BF254234016D270C08C6
S3150800B4D070B5B1F5AA7F044616461D4692B039D80E
S3150800B4E0B1F5A07F06D840F21113994200F0848086
S3150800B4F0A620E9E06FF4A07319441329F8D801A32C
S3150800B50053F821F007B60008F1B4000821B6000880
